:020000040800F2
:10300000804E00204531000815470008794400082B
:103010009D460008E1350008C5A400080000000036
:10302000000000000000000000000000959500086E
:103030008F3A00080000000083320008E55F0008B6
:103040005F3100085F3100085F3100085F31000820
:103050005F3100085F3100085F3100085F31000810
:103060005F3100085F3100085D3F00085F310008F4
:10307000413800085F310008653800085F310008FA
:103080005F3100085F3100085F3100085F310008E0
:103090005F3100085F3100085F3100085F310008D0
:1030A0005F3100085F3100085F3100085F310008C0
:1030B0005F310008A59800085F3100085F31000803
:1030C0005F3100085F3100085F3100085F310008A0
:1030D0005F310008D59F0008C9A10008A1A200081F
:1030E000093F00085F3100085F3100085F310008C8
:1030F0005F3100085F3100085F3100085F31000870
:103100005F3100085F3100085F3100085F3100085F
:103110005F3100085F3100085F3100085F3100084F
:103120005F3100085F3100085F3100085F3100083F
:10313000DFF80CD000F064F800480047B5A600089E
:10314000804E00200648804706480047FEE7FEE71D
:10315000FEE7FEE7FEE7FEE7FEE7FEE7FEE7FEE747
:10316000499700083131000872B6704762B670475F
:10317000EFF3108072B6704780F31088704730BF4D
:10318000704720BF7047B0FA80F0704790FAA0F007
:10319000B0FA80F0704790FAA0F0704710B5431A6B
:1031A000934209D28318881803E010F8011D03F830
:1031B000011D521EF9D210BD40EA01039B0703D046
:1031C00009E008C9121F08C0042AFAD203E011F866
:1031D000013B00F8013B521EF9D210BDD2B201E012
:1031E00000F8012B491EFBD270470022F6E710B50C
:1031F00013460A4604461946FFF7F0FF204610BD65
:10320000064C074D06E0E06840F0010394E8070033
:1032100098471034AC42F6D3FFF78EFF8CAA000813
:10322000ACAA000830B58C1810F8012B12F00F036F
:1032300001D110F8013B120906D110F8012B03E06F
:1032400010F8015B01F8015B5B1EF9D101E001F8A8
:10325000013B521EFBD1A142E6D3002030BD00004D
:1032600018484FF0FF010170002080F309881648CC
:10327000016881F3088815484FF08051016062B6FB
:10328000FEE772B6EFF3098028B1203880E8F00F2E
:103290000F490968086000B50E4880475DF804EBE7
:1032A0000D480E490A78027009480D490A68026003
:1032B000106890E8F00F203080F309884EF0040E7B
:1032C00062B6704722ED00E05C06002004ED00E0ED
:1032D0002C07002089590008BA060020BB060020F0
:1032E00030070020704710B501F06AF910BD0000EA
:1032F00010B5A0B0044600F057F800F073F91FA80D
:1033000001F0D8FDFFF7EFFFFFF7ECFFBDF87C0001
:103310000021154A0223CDE90032CDE90210012235
:1033200012A112A802F06CFDBDF87C1012A802F0E8
:10333000FFFDBDF87C0000210E4A0223CDE90032DA
:10334000CDE90210052301220BA105A802F058FDCA
:10335000BDF87C1005A802F0EBFD1FA9094801F09B
:1033600089FF20B010BD0000F9A400084D79546910
:103370006D6572000DA500084D7954696D65723256
:10338000000000005407002010B500F0F7FD00F029
:103390001DFE00F05BFE10BD00B585B0684605F06F
:1033A000DBFE019805B000BD10B501F0B9F800F0E2
:1033B0001DF80121402005F09FFE00F023FF00F0E2
:1033C000B1FB00F0F5FE06F03FFE06F03DFF01F018
:1033D000CDF8FFF7D9FF8F2142F20F7006F09AFA6D
:1033E0008F2142F20F7006F0DFF910BD70B5FFF7C4
:1033F000D3FF044603480068B4FBF0F5284602F00A
:1034000011FE70BDDCA8000810B56848007820B136
:1034100001281AD0022817D16EE0002064490870F4
:10342000644908706449087064490870012064495F
:103430000870644908708020634948614020086131
:10344000C000486140100861AEE017E080205E498E
:10345000486140200861C0004861401008610020B8
:1034600058490870012056490870002052490870D8
:10347000504908705549087000F0E4FE5148007842
:103480000028E3D14FF400704F49086140204861A3
:103490004F4802784F4801784F48008801F05AF8A9
:1034A0004A490978884207DA0020404908704249B1
:1034B00008700120494908703F480078B0B13C4885
:1034C0000078002817DD00203849087080203E4928
:1034D000486140200861C000486140100861002038
:1034E0003549087001203D49087004E0002030494A
:1034F00008703A49087057E015E080203249486169
:1035000040200861C00048614010086100202C493B
:10351000087001202B4908700020284908702549AF
:1035200008702A490870264800780028E5D18020D4
:1035300025490861400048612548027825480178FE
:103540002548008801F006F820490978884209DA00
:103550000020164908701949087002201F49087098
:1035600000F07AFE15480078C0B1114800780028B4
:1035700019DD00200D490870802013494861402062
:103580000861C00048614010086100200B490870C4
:1035900002201249087000F05FFE04E00020044998
:1035A00008700E49087000BF00BF10BD5400002015
:1035B000210000204C0000204A0000204B00002089
:1035C0004E0000204D00002000100140230000208C
:1035D0004800002049000020460000204F00002045
:1035E00000BFFEE710B500F0FBF800F003F800F0B4
:1035F000F3F810BD70B5002600201849088018495E
:103600000880184908601849086018490860184976
:10361000086018490860002400BFFFF7A9FD0646AE
:1036200000BF00250BE000201049086000F074F88E
:1036300000F08CF80D4800680444681C85B2002D29
:10364000F1D00C480460002008490860084908606F
:1036500000BF3046FFF790FD00BF70BD3807002067
:103660003A0700203C0700204007002048070020C0
:103670004C0700204407002001460846044A12680F
:10368000904203D9024A1268801A00E00020704775
:103690004407002070B5002500BFFFF769FD05460F
:1036A00000BF0648046800BF2846FFF765FD00BF5D
:1036B0002046FFF7E1FF0646304670BD4807002070
:1036C00070B50025FFF7E6FF044600BFFFF750FD89
:1036D000054600BF00200449086000BF2846FFF7E8
:1036E0004BFD00BF204670BD4807002070B5002587
:1036F00000BFFFF73DFD054600BF0648046800BF58
:103700002846FFF739FD00BF2046FFF7B5FF064604
:10371000304670BD4C07002010B509480088401C99
:10372000074908800748008818B900F083F806495F
:10373000086004480088401C0249088010BD000051
:10374000380700203A0700203C07002010B50F483A
:103750000088401E0D49088008460088A0B900F086
:1037600069F80B490860084600680A490968441A64
:1037700009480068A04201D2074804600748006871
:10378000A04201D20548046010BD00003A070020A5
:10379000400700203C070020480700204C0700207D
:1037A00010B5002400BF00BFFFF7E2FC044600BFD5
:1037B000FFF7B2FF00BF1021064800F071FF00BF05
:1037C000FFF7C4FF00BF2046FFF7D6FC00BF00BFD5
:1037D00010BD0000703E002010B5FFF7E1FF10BDE6
:1037E00010B500200249086000F00AF810BD000082
:1037F00034070020014908607047000034070020AA
:1038000010B50A48006840F0807008490860002040
:10381000074948600846006840F001000860FFF76B
:10382000BBFD04462046FFF7E5FF10BDFCED00E0C0
:10383000001000E00148406870470000001000E000
:1038400010B5202000F0E4F8012807D1202000F076
:103850001BF800228021024806F05EFD10BD00002A
:103860000048004010B54FF4005000F0D1F8012896
:1038700007D1400300F008F800228021014806F03B
:103880004BFD10BD0038014000F0805111B10349DB
:10389000086001E0024948607047000004040240EB
:1038A0000000024021B1026842F00102026004E01F
:1038B00002684FF6FE731A400260704701684FF6C7
:1038C000FE72114001600021016041608160C160B1
:1038D0004B49884208D14A490839496841F00F01EB
:1038E000474A083A51608AE045491431884208D174
:1038F00043490839496841F0F001414A083A5160AA
:103900007DE03F492831884208D13D49083949685E
:1039100041F470613A4A083A516070E038493C31EC
:10392000884208D136490839496841F47041344A1F
:10393000083A516063E032495031884208D1304939
:103940000839496841F470212D4A083A516056E01F
:103950002B496431884208D129490839496841F422
:103960007001274A083A516049E025497831884278
:1039700008D123490839496841F07061204A083A62
:1039800051603CE01F49884206D1011F096841F09F
:103990000F01021F116032E01A491431884208D128
:1039A0001849091F096841F0F001164A121F1160F9
:1039B00025E014492831884208D11249091F0968B5
:1039C00041F470610F4A121F116018E00D493C313B
:1039D000884208D10B49091F096841F47041094A1E
:1039E000121F11600BE007495031884207D1054989
:1039F000091F096841F47021024A121F11607047C3
:103A000008000240080402400146486880B270473E
:103A100001460020002201F0805313B1054B1A68C3
:103A200001E0054B1A6802EA01030BB1012000E036
:103A30000020704700040240000002401AB10368F1
:103A40000B43036002E003688B430360704710B5CB
:103A50000022026847F6F0739A430C6A8B6823438E
:103A60000C6923434C6923438C692343CC6923436A
:103A70004C6A23438C6A23431A430260CB68436039
:103A80000B6883604B68C36010BD4160704770472E
:103A90000346062106221248018812480288ABB16B
:103AA000012B1BD13AB94EF6EE60814201D10020C4
:103AB00070470120FCE739B94EF6EE60824201D131
:103AC0000120F5E70020F3E7AB20F1E709B900207A
:103AD000EEE70AB90120EBE7AB20E9E70020E7E7D2
:103AE000008001080084010810B504240B4800F090
:103AF0001FFB0446042C01D0204610BD00210748BE
:103B000000F060FB0446042C01D02046F5E7044891
:103B100000F00EFB04462046EFE70000008001089D
:103B2000008401082DE9F0474FF0060A062600251B
:103B30000027A8464FF0FF397448B0F800A0744839
:103B400006885FEA0A0075D0A0F56E40EE3858B3DB
:103B5000A0F58850113800286DD146B96B4800F0A7
:103B6000E7FA0446042C1ED02046BDE8F0874EF646
:103B7000EE60864210D1654800F0DAFA0446042C63
:103B800001D02046F1E70021614800F01BFB04460C
:103B9000042C08D02046E8E7FFF7A6FF0446042CD3
:103BA00001D02046E1E7AEE07EBB002522E0574889
:103BB000C088584931F81510884201D10FFA85F9AB
:103BC0004D4515D0534931F81500534900F020F9FF
:103BD0008046B8F1010F0BD04E4931F815004E491F
:103BE000098800F047F90746042F01D03846BCE7A2
:103BF000681C85B2062DDADB0021444800F0E2FAA9
:103C00000446042C02D02046AFE707E0404800F00D
:103C10008FFA0446042C1FD02046A6E74FF6FF700B
:103C2000864212D13A4800F083FA0446042C03D0AD
:103C300020469AE711E05EE00021344800F0C2FA25
:103C40000446042C08D020468FE7FFF74DFF0446BA
:103C5000042C01D0204688E755E036B9FFF744FF31
:103C60000446042C46D020467FE74FF6FF7086427C
:103C700007D1274800F05CFA0446042C3AD02046CD
:103C800073E7002523E02248801D0088214931F890
:103C90001510884201D10FFA85F94D4515D01D49FF
:103CA00031F815001C4900F0B3F88046B8F1010F57
:103CB0000BD0184931F815001749098800F0DAF8D7
:103CC0000746042F01D038464FE7681C85B2062D01
:103CD000D9DB00210E4800F075FA0446042C01D00F
:103CE000204642E7094800F023FA0446042C01D09C
:103CF00020463AE707E0FFF7F7FE0446042C01D020
:103D0000204632E700BF00BF04202EE700800108F4
:103D10000084010828000020260000202DE9F84F2B
:103D2000074689460425DFF8D0A0344800904FF0BC
:103D30000008002400264FF0000B0020FFF7A8FE2B
:103D40008046B8F1010F04D1DFF8B4A02D480090EF
:103D50000AE0B8F1000F04D1DFF8A8A028480090CD
:103D600002E0AB20BDE8F88F4EF6EE61504600F061
:103D700029FA0546042D01D02846F3E7494638467E
:103D800000F078F80646042E01D03046EAE7002419
:103D90001CE01D4830F81400B84215D01A4931F81B
:103DA00014001A4900F034F88346BBF1010F0BD020
:103DB000154931F814001549098800F05BF80646EA
:103DC000042E01D03046CDE7601C84B2062CE0DB27
:103DD000009800F0ADF90546042D01D02846C1E752
:103DE0000021504600F0EEF90546042D01D028468A
:103DF000B8E72846B6E70000FF0301080000010805
:103E0000008001080084010828000020260000200E
:103E10002DE9F04706460F46002445F255584FF06D
:103E20000109124DAA460020FFF732FE0446AB2CD2
:103E300001D1BDE8F0870E4800EB842A601C0C49D4
:103E4000891E01EB80250AE0B5F80080B04505D158
:103E500035F8020C38804FF0000904E02D1F0AF1FC
:103E600002008542F0D800BF4846E2E700000108A2
:103E7000008001082DE9F047064688460427002502
:103E8000154CDFF858900120FFF702FE0546AB2DD8
:103E900001D1BDE8F087124800EB8524681C104969
:103EA000891E01EB802913E02068401C78B9414647
:103EB000204600F087F90746042F01D03846E8E78E
:103EC0003146A01C00F07EF907463846E1E7241D84
:103ED0004C45E9D38020DCE700000108FF0701081A
:103EE0000080010870B505460E460024314628467C
:103EF000FFF7C0FF0446802C04D131462846FFF767
:103F00000DFF0446204670BD10B54FF4805000F000
:103F100089F8D0B14FF480510C4800F09BFA20B9D9
:103F20000B480078401C0A4908704FF4805109483A
:103F300000F090FA012804D107480078401C064997
:103F400008704FF4805000F067F810BD0010014079
:103F500021000020000C01402300002010B510209B
:103F600000F060F838B104480078401C024908703D
:103F7000102000F051F810BD220000200EB50121E4
:103F8000102005F0D9F800F0C6FB4FF48050ADF8D2
:103F9000080048208DF80B0002A90B4800F086F9B4
:103FA0000C21022000F062F94FF4805000900020B4
:103FB0008DF804000C208DF8050001208DF8060016
:103FC000684600F06BF80EBD001001400EB50121EF
:103FD000092005F0B1F800F0B3FB1020ADF808009F
:103FE00048208DF80B0002A90A4800F05FF904216F
:103FF000012000F03BF91020009000208DF8040013
:104000000C208DF8050001208DF80600684600F0B0
:1040100045F80EBD000C01400149086070470000E2
:1040200014040140014600200022074B1B6803EAEC
:104030000102054B14331B680B4013B10AB1012078
:1040400000E0002070470000000401400EB501218F
:10405000082005F071F800F05EFB4FF48050ADF8D9
:10406000080028208DF80B0002A90B4800F01EF96B
:104070000C21012000F0FAF84FF48050009000204D
:104080008DF8040008208DF8050001208DF8060049
:10409000684600F003F80EBD000C014000212349E2
:1040A0008279002A3AD00A46126803689A430B467E
:1040B0001A600A1D126803689A430B1D1A60027980
:1040C00011440A6803681A430A60184A08321268E1
:1040D00003689A43154B08331A601A1D1268036867
:1040E0009A43124B0C331A604279102A0ED11A1FD0
:1040F000126803681A430D4B08331A601A1D1268C0
:1041000003681A43094B0C331A600DE007494279E2
:1041100011440A6803681A430A6005E002791144F1
:104120000A6803689A430A6070470000000401406F
:1041300030B5044604254FF4302000F06FF80546F2
:10414000042D17D10C48006940F002000A490861AB
:1041500008464461006940F0400008614FF4302097
:1041600000F05CF805460448006941F6FD7108401E
:1041700001490861284630BD0020024004200B4957
:10418000C96801F0010109B101200EE00749C968C1
:1041900001F0040109B1022007E00449C96801F0F7
:1041A000100109B1032000E0042070470020024004
:1041B0000348006940F08000014908617047000031
:1041C0000020024070B504460D460426F00200F0BF
:1041D00025F80646042E11D10948006940F0010077
:1041E000074908612580F00200F018F806460448E7
:1041F000006941F6FE71084001490861304670BD12
:104200000020024002480349486003484860704764
:104210002301674500200240AB89EFCD00B502467F
:104220000423FFF7ABFF034603E0FFF7A7FF0346B6
:10423000521E012B01D1002AF7D102B905231846DD
:1042400000BD000010B5034802880121880705F071
:104250002DFA10BD4000002010B50348028801214E
:10426000880705F023FA10BD4200002030B5002277
:104270008B071C0F0F2303FA04F20B4B8C1053F81F
:1042800024309343084C8D1044F8253023468C107D
:1042900053F824308C07240F00FA04F42343024C13
:1042A0008D1044F8253030BD080001402DE9F04163
:1042B000024600250026002000230024002791F854
:1042C00003C00CF00F0591F803C00CF0100CBCF10A
:1042D000000F03D091F802C04CEA050591F800C028
:1042E000BCF1000F31D0146800202BE04FF0010C1E
:1042F0000CFA00F3B1F800C00CEA03069E4220D18C
:1043000083004FF00F0C0CFA03F7BC4305FA03FCD3
:104310004CEA040491F803C0BCF1280F06D14FF019
:10432000010C0CFA00FCC2F814C00AE091F803C0BA
:10433000BCF1480F05D14FF0010C0CFA00FCC2F89B
:1043400010C0401C0828D1D31460B1F800C0BCF1E3
:10435000FF0F34DD546800202EE000F1080C4FF010
:10436000010808FA0CF3B1F800C00CEA03069E42FB
:1043700021D183004FF00F0C0CFA03F7BC4305FA70
:1043800003FC4CEA040491F803C0BCF1280F05D1EA
:1043900000F1080C08FA0CF8C2F8148091F803C078
:1043A000BCF1480F07D100F1080C4FF0010808FAE2
:1043B0000CF8C2F81080401C0828CED35460BDE829
:1043C000F0810000F0B50A460023002400210025FA
:1043D00000F00046B6F1004F02D11D4EF16901E038
:1043E0001B4E7168C0F3034583B200F44016B6F566
:1043F000401F08D121F07061154E766826F0706676
:10440000134F7E6012E000F48016B6F5801F06D1CF
:10441000032606FA05F4A14341F0706106E0460D5B
:10442000360103FA06F6B14341F0706122B1460D40
:10443000360103FA06F6314300F00046B6F1004FAC
:1044400002D1034EF16101E0014E7160F0BD000048
:10445000000001400246002093680B400BB1012090
:1044600000E00020704741617047016170470146DC
:104470008A1D10787047000002A006F025F800BFE2
:10448000FEE700000D0A206861726466616C757455
:10449000206572720D0A0000AA2101700D21417081
:1044A000817821F00101491C8170817821F0FE01A1
:1044B00081700021C17081807047000010B500221A
:1044C0000121164804F0CCFD60B1012202211348FD
:1044D00004F0C6FD30B14FF400701049086140206F
:1044E00048611AE0002202210C4804F0B9FD58B1DD
:1044F00001221146094804F0B3FD28B18020074984
:1045000008614000486108E080200449486140207B
:104510000861C00048614010086110BD00100140F2
:1045200008B50121082004F007FE0120ADF80000C5
:1045300010208DF8030003208DF80200694604481E
:10454000FFF7B4FE01210248FFF78FFF08BD00000E
:10455000000C014010B50346034C247893FBF4F49F
:1045600094FBF2F4A0B210BD4900002008B501216F
:10457000102004F0E1FD4FF47070ADF80000102041
:104580008DF8030003208DF802004FF420710B48D2
:10459000FFF769FF4FF4A0710848FFF766FF69460F
:1045A0000648FFF783FE80200449486140200861E7
:1045B000C00048614010086108BD000000100140C3
:1045C00000B58BB00AA8032100220592CDE906218F
:1045D00008901046502108221E4BCDE90132CDE94A
:1045E0000310032000231C4A1CA100901F4800F068
:1045F000EBFC0AA8032100220592CDE906210890D0
:104600001046502108221A4BCDE90132CDE90310A2
:1046100004200023174A18A10090194800F0D4FC88
:104620000AA8032100220592CDE906210890104630
:1046300050210822134BCDE90132CDE903100620A9
:104640000023114A11A10090134800F0BDFC0BB0EB
:1046500000BD00007C1F0020359E000855534152CC
:10466000545F4465636F646500000000E41B002034
:10467000BC200020D59D000853616D706C65000062
:10468000AC1C0020FC2100209D9D0008444A495F8D
:104690004261747465727900741D002000BFFEE7EA
:1046A00030B505460C4622460021284600F001F8A8
:1046B00030BD2DE9F04103460C4617460FB9BDE861
:1046C000F08103B9FBE70025002202E02D0225431B
:1046D000521C042AFAD3384603F0030C1946BCF1E5
:1046E000000F08D0624603E001F8014B401E521C47
:1046F00008B1042AF8D30E4601E020C6001F0428A2
:10470000FBD2314602E001F8014B401E0028FAD1ED
:1047100000BFD4E7704708B54FF4E06000F06EF8D2
:1047200028208DF8000000208DF8010005208DF86C
:10473000020001208DF80300684600F027F808BD4C
:1047400008B54FF4E06000F059F80A208DF8000039
:1047500000208DF8010005208DF8020001208DF861
:104760000300684600F012F808BD08B51D208DF85A
:10477000000000208DF8010003208DF802000120C8
:104780008DF80300684600F001F808BD70B50021FF
:1047900000230F22C47804B3154C246804F4E064A9
:1047A000C4F5E064210AC1F10403CA40447804FA64
:1047B00003F184781440214309010E4C0678A15579
:1047C000047804F01F050124AC4005786D11AD009C
:1047D00005F1E025C5F8004109E0047804F01F0563
:1047E0000124AC40044D0678761145F8264070BD92
:1047F0000CED00E000E400E080E100E0024901434C
:10480000024A1160704700000000FA050CED00E05C
:104810000648006800F4E06005490843001D0349AC
:104820000860BFF3408F00BFFEE700000CED00E022
:104830000000FA057047000010B50348006810B189
:1048400001480068804710BD7006002070B504461E
:1048500000F0C2F8002048490870484908704849EB
:104860000870484908604849086048490870484944
:104870000870484908704849086048490860484934
:10488000086048490870484800680A21B0FBF1F008
:10489000464908604648006858B14648056845B131
:1048A0004348066803E0761E002028602D1D002E78
:1048B000F9D100204049086040490860404908603B
:1048C0004049086040490860404908604049086024
:1048D0004049087002F038FB02F036FC204601F037
:1048E00093FC208800B170BD204602F0ADF820880E
:1048F00000B1F8E7204602F0B3F8208800B1F2E7F3
:10490000204602F097F9208800B1ECE7204602F03B
:104910004BFB208800B1E6E7204602F09BFD208893
:1049200000B1E0E7204603F005F9208800B1DAE79E
:10493000204601F0F5FF208800B1D4E7204601F0C1
:10494000FFFD208800B1CEE7204604F05BF9208807
:1049500000B1C8E7204603F031F8208800B1C2E773
:10496000204604F0BFF9208800B1BCE701F072FBDB
:10497000FFF760FF00BFB6E7840600208C0600202A
:10498000D40600202C07002030070020BA060020A3
:10499000BB060020BC060020C8060020CC06002074
:1049A000D0060020DC060020DCA80008D806002085
:1049B000ACA80008A8A8000864060020680600202B
:1049C0006C06002070060020740600207806002087
:1049D0007C0600200A0700200A4A1168002002E035
:1049E000002204C1401C084A12689042F8D3054ACC
:1049F0001268054B1B6802EB8302121F034B1A60FF
:104A000070470000A8A80008ACA800085C060020B9
:104A100008480078012800D0704707480078FA2835
:104A200000DBF9E704480078401C0349087000BF28
:104A3000F2E700008C0600208406002010B5002458
:104A40002E480078012800D010BD00BFFEF790FB73
:104A5000044600BF2A48007828B900BF2046FEF768
:104A60008BFB00BFF0E726480078401E2449087001
:104A700008460078002805DD00BF2046FEF77CFBD5
:104A800000BFE1E71F480078002805DD00BF204691
:104A9000FEF772FB00BFD7E702F042FA1A4908702E
:104AA0000846007800EB4000184951F820001849EA
:104AB00008600846006817490968884205D100BFA8
:104AC0002046FEF759FB00BFBEE711480068D0F84A
:104AD0009000401C0E490968C1F890000E4800681B
:104AE000401C0D4908604FF080500C49086000BF21
:104AF0002046FEF741FB00BF00BFA5E78C06002063
:104B000084060020D4060020BB060020983A00202E
:104B1000300700202C0700200007002004ED00E0F3
:104B200010B5002420480078002800DD10BD1F4883
:104B30000078002800DDF9E700BFFEF719FB044606
:104B400000BF02F0EDF91A4908700846007800EB42
:104B50004000184951F820001749086008460068CD
:104B600016490968884205D100BF2046FEF704FBBC
:104B700000BFDBE710480068D0F89000401C0E49E9
:104B80000968C1F890000E480068401C0C49086094
:104B90004FF080500B49086000BF2046FEF7ECFA4A
:104BA00000BF00BFC2E7000084060020D40600203A
:104BB000BB060020983A0020300700202C07002078
:104BC0000007002004ED00E070B5044600251A48F7
:104BD0000078002803DD46F66250208070BD17483B
:104BE0000078012803D045F689602080F6E7144854
:104BF0000078FA2803DB45F209202080EEE700BFA9
:104C000000BFFEF7B5FA054600BFFEF785FD00BF01
:104C10000B480078401C0A49087002F079FB00BF7D
:104C2000FEF794FD00BF2846FEF7A6FA00BF00BFBE
:104C30000020208000BFD1E7840600208C060020E1
:104C4000D406002070B504460025234800780028CB
:104C500003DD46F66550208070BD204800780128AD
:104C600003D045F689602080F6E71D48007818B922
:104C700046F664502080EFE700BF00BFFEF778FAE9
:104C8000054600BFFEF748FD00BF15480078401EEE
:104C9000134908700846007800280CDD00BFFEF7B5
:104CA00055FD00BF2846FEF767FA00BF00BF46F675
:104CB00063502080D0E702F039FB00BFFEF746FDCD
:104CC00000BF2846FEF758FA00BF00BFFFF728FFD5
:104CD0000020208000BFBFE7840600208C06002053
:104CE000D406002010B5044612480078E8B902F056
:104CF00017F91149087008460078104908700E48E5
:104D0000007800EB40000E4951F820000D49086082
:104D1000084600680C490860012006490870FEF743
:104D20009FFA43F69920208002E045F68A602080B1
:104D300010BD00008C060020BB060020BA06002033
:104D4000983A0020300700202C0700202DE9F04180
:104D500007464FF0000800BF00BFFEF709FA804683
:104D600000BFFEF7D9FC00BF002047490860474953
:104D70000880474908804749086047490860474913
:104D8000086047490860474908604749088100BFF3
:104D9000FEF7DCFC00BF4046FEF7EEF900BF00BFA7
:104DA00000BF00BFFEF7E4F9804600BFFEF7B4FC89
:104DB00000BF3E48046800BFFEF7C8FC00BF404685
:104DC000FEF7DAF900BF00BF26E000BF00BFFEF724
:104DD000CFF9804600BFFEF79FFC00BF002078346B
:104DE000E063206420602063A061A082E0826062B2
:104DF000A062FEF71FFD2062783C04F164060020EB
:104E0000B081D4F8C04000BFFEF7A0FC00BF404610
:104E1000FEF7B2F900BF00BF002CD6D100BF00BF23
:104E2000FEF7A6F9804600BFFEF776FC00BF2048DB
:104E3000056800BFFEF78AFC00BF4046FEF79CF9FC
:104E400000BF00BF16E000BF00BFFEF791F980462B
:104E500000BFFEF761FC00BF05F120060020B08115
:104E6000AD6900BFFEF772FC00BF4046FEF784F953
:104E700000BF00BF002DE6D103F08CFD04F02EF83A
:104E800000203880BDE8F081A00600209A060020AE
:104E9000EA060020FC060020100700201C07002066
:104EA00088060020CC0600208C3A00200407002051
:104EB000C0060020F8B5044600266946364800F0D2
:104EC00033FDBDF8000018B1BDF800002080F8BD2A
:104ED0006A460021022000F0A9FDBDF8000018B1CB
:104EE000BDF800002080F2E700BF00BFFEF740F9E8
:104EF000064600BFFEF710FC00BF002027490860EF
:104F000000BFFEF723FC00BF3046FEF735F900BFB7
:104F100000BF00252248006822490968884205D957
:104F20001F4800681F490968B0FBF1F525B91C4806
:104F300000680A21B0FBF1F56A460021284600F01E
:104F400075FD6946144800F0A5FABDF8000018B1D7
:104F5000BDF800002080BAE700BF00BFFEF708F9E7
:104F6000064600BFFEF7D8FB00BF00200E490860D0
:104F70000A4800680D49086001200D49087000BF0B
:104F8000FEF7E4FB00BF3046FEF7F6F800BF00BFB7
:104F90000020208000BF9AE7A83D0020EC060020FA
:104FA000DCA80008C4A80008FC060020F0060020C9
:104FB000F806002010B50348006810B101480068E9
:104FC000804710BD740600202DE9FF4F87B00446CE
:104FD0009046DDE91BA5DDE91496179F002003909C
:104FE00095480078002805DD47F24A1028800BB06C
:104FF000BDE8F08F1CB947F2AD102880F7E7B8F193
:10500000000F03D147F24F102880F0E71EB946F693
:105010002F602880EBE789480068874203D246F674
:1050200030602880E3E71698B84203D346F6316033
:105030002880DCE7B9F1200F03D346F273202880E3
:10504000D5E7B9F1000F06D17D48844203D046F27E
:1050500073202880CBE7B9F11F0F06D1794884422D
:1050600003D046F273202880C1E7204602F072FD8B
:10507000002028800AF0010090B10AF0020078B107
:1050800005960020069008E000210598016005982B
:10509000001D05900698401C06900698B842F3D370
:1050A000169806EB80000490CDE9007A324640461F
:1050B000049B0A9900F0D8FB0590C4F828800A9850
:1050C000E0620898206284F8379005982060049880
:1050D000A06019986065199818B95B480068A065C8
:1050E00001E01998A0651A9860606662A763A4F849
:1050F0003CA04FF0000B08E0002104F17C0040F8D8
:105100002B100BF1010000F0FF0BBBF1000FF3D0EF
:1051100004F16400189901F003FD204600F09EF8A8
:1051200000BF00BF00BFFEF723F8039000BFFEF7EB
:10513000F3FA00BF45480078401C4449087008460F
:105140000078012801D102F0E3F800BFFEF7FEFA73
:1051500000BF0398FEF710F800BF00BF00BF94F82F
:10516000370001F0FDFE204602F036F8204602F03E
:10517000A7FC37480088401C35490880354800782E
:10518000012837D000BF00BF00BFFDF7F1FF03903B
:1051900000BFFEF7C1FA00BF2C480078401E2B4923
:1051A000087008460078D0B902F0C0F82A48008894
:1051B00000280BDD00BFFEF7C9FA00BF0398FDF71A
:1051C000DBFF00BF00BF02F075F811E000BFFEF783
:1051D000BDFA00BF0398FDF7CFFF00BF08E000BF96
:1051E000FEF7B4FA00BF0398FDF7C6FF00BF00BF8B
:1051F00000BFFCE600BF00BF00BFFDF7B9FF039092
:1052000000BFFEF789FA00BF10480078401E0F4922
:1052100008700846007808B902F088F800BFFEF769
:1052200095FA00BF0398FDF7A7FF00BF00BF00BFBE
:10523000FFF776FC00BFDAE684060020D8A8000855
:10524000C4390020FC380020D8060020D4060020F5
:10525000080700208C0600209806002010B50446A0
:105260000348006818B1204601490968884710BD05
:105270006406002070B504460D4600267848007884
:10528000002803DD47F24E10288070BD7548844227
:1052900003D147F24C102880F7E77348844203D1CA
:1052A00047F24D102880F0E79CB900BF00BFFDF722
:1052B0005FFF064600BFFEF72FFA00BF6B48046889
:1052C00000BFFEF743FA00BF3046FDF755FF00BFB1
:1052D00000BF00BF00BF00BFFDF74AFF064600BF8A
:1052E000FEF71AFA00BF62480078401C6049087057
:1052F00008460078012801D102F00AF800BFFEF745
:1053000025FA00BF3046FDF737FF00BF00BF00BFE2
:1053100094F8360008282DD2DFE800F004090E10BA
:10532000080A0F11204601F097FF5EE05DE000BF24
:10533000204603F013FB58E000BF00BF00BF20462B
:1053400003F00CFB94F83400082810D2DFE800F0DA
:1053500004070508090A0B0600BF00BF08E000BFEC
:1053600000BF00BF00BF204601F02BFD00E000BFE2
:1053700000BF3AE000BF00BF00BFFDF7F9FE0646E0
:1053800000BFFEF7C9F900BF39480078401E384910
:10539000087008460078D0B901F0C8FF3548008889
:1053A00000280BDD00BFFEF7D1F900BF3046FDF746
:1053B000E3FE00BF00BF01F07DFF11E000BFFEF77C
:1053C000C5F900BF3046FDF7D7FE00BF08E000BFBB
:1053D000FEF7BCF900BF3046FDF7CEFE00BF00BFB0
:1053E00000BF46F62D6028804FE700BF04F164003F
:1053F00001F074FB204600F041F8204602F078FBF3
:105400001D480088401E1C490880204602F0A2FB6F
:10541000FF2084F8360000BF00BF00BFFDF7A8FEE4
:10542000064600BFFEF778F900BF11480078401E1D
:105430000F4908700846007808B901F077FF00BFEF
:10544000FEF784F900BF3046FDF796FE00BF00BFAF
:1054500000BF00202880FFF763FB00BF15E70000B6
:1054600084060020FC380020C43900202C070020CE
:10547000D4060020980600200807002010B5044636
:105480000348006818B1204601490968884710BDE3
:10549000680600207FB504460D46002600BF00BF09
:1054A000FDF766FE064600BFFEF736F900BF1CB1E9
:1054B0001748006884420CD100BFFEF747F900BFCF
:1054C0003046FDF759FE00BF00BF47F25710288055
:1054D0007FBD00BFFEF73AF900BF3046FDF74CFE36
:1054E00000BF00BF0B48007800280BDD00200090B3
:1054F0000190034602462146CDE90205064801F027
:1055000057F8E5E72946204602F0D0FC00BFDFE768
:105510002C070020840600205452455310B5044641
:105520000348006818B1204601490968884710BD42
:105530006C0600202DE9F04780460E4614461D46B5
:105540004FF000098C480078002805DD46F2AE10C7
:1055500028800020BDE8F0871EB1B6F5004F02D1CB
:1055600000E000BF04E045F6256028800020F1E758
:1055700000BF0CB10020206000BF00BFFDF7F8FDA8
:10558000814600BFFEF7C8F800BF7C480068406C49
:10559000B8B37A480068406C401E7849096848648E
:1055A00076480068476C1CB174480068006C206045
:1055B000FEF740F971490968096C401A6F4909689A
:1055C000C1F8A4006D480068D0F8A8006B490968CC
:1055D000D1F8A410884207D268480068D0F8A40027
:1055E00066490968C1F8A80000BFFEF7AFF800BF20
:1055F0004846FDF7C1FD00BF00BF002028803846A7
:10560000A8E7FFE706F4004068B100BFFEF79EF888
:1056100000BF4846FDF7B0FD00BF00BF46F2B01026
:105620002880002096E75648007800280DDD00BF4E
:10563000FEF78CF800BF4846FDF79EFD00BF00BF97
:1056400046F663502880002084E700BF4C4800786D
:10565000401C4B49087008460078012801D101F030
:1056600057FE00BFFEF772F800BF4846FDF784FD05
:1056700000BF00BF00BF434607220021084601F0DB
:10568000E5FA00BF00BF00BFFDF772FD814600BF15
:10569000FEF742F800BF3A480078401E38490870CB
:1056A0000846007808B901F041FE00BFFEF74EF849
:1056B00000BF4846FDF760FD00BF00BF00BFFFF719
:1056C0002FFA00BF00BFFDF753FD814600BFFEF774
:1056D00023F800BF2948006890F8350020B1012860
:1056E00026D0032834D12CE0FCB124480068006C9B
:1056F0002060FEF79FF821490968096C401A1F498C
:105700000968C1F8A4001D480068D0F8A8001B492A
:105710000968D1F8A410884207D218480068D0F868
:10572000A40016490968C1F8A8000020288013E0E9
:105730001CB112480068006C206046F2A910288055
:105740000AE00CB10020206047F2D920288003E055
:1057500046F62E60288000BF00BF08480068476CEE
:1057600000BFFDF7F3FF00BF4846FDF705FD00BF92
:1057700000BF3846EEE60000840600202C0700201B
:10578000D40600202DE9F04705460E4617461C4674
:105790004FF0000A32480078002804DD47F2591023
:1057A0002080BDE8F0871EB946F2D5202080F8E7BA
:1057B0001FB946F2D5202080F3E700BF00BFFDF7F8
:1057C000D7FC824600BFFDF7A7FF00BF0DB92548F3
:1057D0000568286878B900BFFDF7B8FF00BF5046DC
:1057E000FDF7CAFC00BF00BF00203060386047F200
:1057F00052102080D5E795F83C0000F0010078B900
:1058000000BFFDF7A3FF00BF5046FDF7B5FC00BF8A
:1058100000BF00203060386047F254102080C0E79D
:1058200000BFFDF793FF00BF5046FDF7A5FC00BF8A
:1058300000BF4FF00008D5F8249003E009F10409F7
:1058400008F10108D9F800000028F7D0C6F8008058
:10585000A86BA0EB080038600020208000BFA0E704
:10586000840600202C070020F0B50446DDE905562B
:1058700002EB85004FF0807C071F3846C7F800C058
:10588000071F38463C60DFF89CC0071F3846C7F842
:1058900000C04FF0123C071F3846C7F800C04FF059
:1058A000033C071F3846C7F800C04FF0023C071FF3
:1058B0003846C7F800C0071F38463B60071F384608
:1058C00039604FF0113C071F3846C7F800C04FF051
:1058D000103C071F3846C7F800C04FF0093C071FAF
:1058E0003846C7F800C04FF0083C071F3846C7F8D5
:1058F00000C04FF0073C071F3846C7F800C04FF004
:10590000063C071F3846C7F800C04FF0053C071F8C
:105910003846C7F800C04FF0043C071F3846C7F8A8
:1059200000C0F0BD298000087FB505460C4612482E
:10593000854203D147F25B1020807FBD0F4885422E
:1059400003D147F25C102080F7E70D48007800286B
:105950000BDD002000900190034602462946CDE968
:105960000204084800F024FEE7E72146284602F03A
:105970003BFE00BFE1E70000FC380020C4390020F6
:10598000840600205453555370B52448006810B164
:10599000224800688047FDF74DFF04462048006814
:1059A00020490968884215D01D480068D0F8980041
:1059B000201A1B490968C1F8940019480068D0F8FA
:1059C0009C0017490968D1F89410084414490968E3
:1059D000C1F89C0013480068C0F89840FDF770FEBD
:1059E00005460F480068D0F8B400A84203D20C481E
:1059F0000068C0F8B4500A480068D0F8B8000A49F6
:105A00000968884205D20848006805490968C1F854
:105A1000B80000200449086070BD0000780600202E
:105A20002C07002030070020D00600202DE9F0418F
:105A300005460E46144600274D480078002804DD30
:105A400047F275202080BDE8F0814A4800780028A0
:105A500003DD46F663502080F5E736B1022E05D00F
:105A6000042E0AD0082E09D101E000BF00BF1DB9E5
:105A700047F27E202080E6E704E003E045F625605B
:105A80002080E0E700BF00BF00BF00BFFDF770FB54
:105A9000074600BFFDF740FE00BF36480078401CB7
:105AA0003449087008460078012801D101F030FC23
:105AB00000BFFDF74BFE00BF3846FDF75DFB00BFA2
:105AC00000BF00BF01202C49096881F83600234639
:105AD000324629462848006802F062FE2088F0B16C
:105AE00000BF00BF00BFFDF743FB074600BFFDF747
:105AF00013FE00BF1F480078401E1E49087008466C
:105B0000007808B901F012FC00BFFDF71FFE00BFCE
:105B10003846FDF731FB00BF00BF00BF93E71648D2
:105B2000006801F099FB00BF00BF00BFFDF720FB3C
:105B3000074600BFFDF7F0FD00BF0E480078401E8D
:105B40000C4908700846007808B901F0EFFB00BF67
:105B5000FDF7FCFD00BF3846FDF70EFB00BF00BFA0
:105B600000BFFEF7DDFF0020208000BF6BE70000D4
:105B700084060020D40600202C0700202DE9FF5FBA
:105B800005460E4617469846DDE90EA40020009013
:105B900081480078002804DD47F275202080BDE8A8
:105BA000FF9F7E480078002803DD46F66350208082
:105BB000F5E70AF00E0BBBF1000F09D0BBF1020FA5
:105BC00007D0BBF1040F10D0BBF1080F0ED101E0DC
:105BD00000BF00BFB8F1000F06D12FB926B91DB91B
:105BE00047F27E202080DAE704E003E045F62560F6
:105BF0002080D4E700BF2AF01E0008B1012000E099
:105C0000002003900398012803D145F625602080E9
:105C1000C5E7CAF3001002900298C0B9B8F57A7FC0
:105C200003D347F27B202080B9E73B2F03DD47F207
:105C30007A202080B3E73B2E03DD47F279202080D5
:105C4000ADE7632D12DD47F278202080A7E742F20E
:105C50000F70864203DD47F2792020809FE7B5F57B
:105C60007A7F03DB47F27820208098E74C48D0F811
:105C700000904FF4FA70B0FBF9F0404400FB09F0DB
:105C80004FF47A71B0FBF1F14FF461606843C6EBF9
:105C9000061200EB8200384400FB091001900198C5
:105CA000002873D000BF00BF00BFFDF761FA00906D
:105CB00000BFFDF731FD00BF38480078401C374970
:105CC000087008460078012801D101F021FB00BFCF
:105CD000FDF73CFD00BF0098FDF74EFA00BF00BF86
:105CE00000BF01202F49096881F8360023465A4633
:105CF0002C480199006802F053FD2088F0B100BFE4
:105D000000BF00BFFDF734FA009000BFFDF704FDAF
:105D100000BF22480078401E2049087008460078DD
:105D200008B901F003FB00BFFDF710FD00BF0098AC
:105D3000FDF722FA00BF00BF00BF30E71948006836
:105D400001F08AFA00BF00BF00BFFDF711FA009012
:105D500000BFFDF7E1FC00BF10480078401E0F496E
:105D600008700846007808B901F0E0FA00BFFDF7B6
:105D7000EDFC00BF0098FDF7FFF900BF00BF00BFBA
:105D8000FEF7CEFE0020208003E0FFE747F27E20F2
:105D9000208000BF03E7000084060020D406002016
:105DA000DCA800082C07002010B586B000F01EF813
:105DB000FDF740FD044605A800210091CDE901143E
:105DC00003900748007800EB4000064A02EB800190
:105DD00000231A46044800F0EBFB06B010BD00009B
:105DE000BA060020983A00205449434B10B50348A6
:105DF000006810B101480068804710BD7C06002093
:105E00002DE9F84F0446884616461F46DDE90BABE0
:105E1000DDF828900D9D0020009041480078002872
:105E200004DD47F243302880BDE8F88F1CB945F601
:105E3000C3502880F8E7B9F1010F08D0B9F1020F7B
:105E40000BD11FB947F240302880EDE709E01EB9B9
:105E500047F23F302880E7E703E045F625602880D9
:105E6000E2E700BF00BF00BF00BFFDF781F900906F
:105E700000BFFDF751FC00BF2A480078401C2949AB
:105E8000087008460078012801D101F041FA00BFEE
:105E9000FDF75CFC00BF0098FDF76EF900BF00BF86
:105EA00000BF012084F82A001F482060C4F8048045
:105EB00026620020A061E0616762A4F82890C4F81F
:105EC00008A0C4F80CB020616061204602F0F6FE24
:105ED00016480088401C1549088000BF00BF00BF5D
:105EE000FDF746F9009000BFFDF716FC00BF0D4816
:105EF0000078401E0B4908700846007808B901F088
:105F000015FA00BFFDF722FC00BF0098FDF734F939
:105F100000BF00BF00BF0020288000BF84E7000052
:105F200084060020D4060020544D5220180700207B
:105F3000F8B506460C4629480078002804DD47F2EB
:105F4000433020800020F8BD26B947F2423020803F
:105F50000020F8E722493068884204D045F6C45052
:105F600020800020EFE76846FEF72EFE96F82A0014
:105F700000B3012812D0022802D0032822D10EE05B
:105F8000304603F01DF80021304602F03FFF68461E
:105F9000FEF758FE0020208001251BE000BF0021F5
:105FA000304602F033FF6846FEF74CFE00202080AA
:105FB00001250FE06846FEF745FE47F23D302080A0
:105FC000002507E06846FEF73DFE47F2413020809D
:105FD000002500BF00BF2846B5E70000840600206A
:105FE000544D522010B5002400BF00BFFDF7C0F88B
:105FF000044600BFFDF790FB00BF09480078401C35
:106000000749087000BFFDF7A1FB00BF2046FDF760
:10601000B3F800BF00BFFFF7C7FEFEF70FFD10BDCE
:106020008406002001464A1E4FF0E0235A61084AC8
:10603000106820F07F4000BF10601A46126942F0DD
:1060400005021A611A46126942F002021A6170478B
:1060500020ED00E0254A2649264A274A2749284AB2
:106060002848294A294A2A4A2A4A2B482B482C4898
:106070002C4A2D482D4A2E482E4A2F482F4830486A
:106080003048314A314A324A3248334A334A344836
:10609000344835483548364836483748374A384A0C
:1060A000384A394A39483A483A483B4A3B4A3C4AD6
:1060B0003C483D483D483E493E483F4A3F4A404AA9
:1060C000404A414A414A424A4248434A434A444874
:1060D0004448454A454A4648464A474A4748484848
:1060E000484800BF00BF00BF7047000020A900085B
:1060F00088AA000821A9000822A9000824A90008EC
:1061000028A900082CA9000829A9000854A90008FA
:1061100055A9000856A9000858A900085AA900085E
:106120005CA900085EA9000860A9000880A9000811
:1061300082A9000884A9000886A9000888A9000887
:106140008AA900088CA90008B8A90008B9A9000804
:10615000BAA90008BCA90008BEA90008BFA9000888
:10616000C0A90008C2A90008C4A90008C6A900085F
:10617000C8A90008CAA90008CCA90008FCA9000801
:10618000FDA90008FEA90008FFA9000800AA000850
:1061900002AA000804AA00082CAA00082DAA0008D8
:1061A0002EAA00082FAA000830AA000832AA000868
:1061B00034AA000838AA000839AA00083AAA000838
:1061C0003BAA00083CAA00083DAA00083EAA000815
:1061D0003FAA000840AA000842AA000843AA0008F3
:1061E00044AA000846AA000848AA000849AA0008CC
:1061F0004CAA000880AA000881AA000882AA000808
:1062000084AA000886AA00080021034A1160034AF4
:106210001180018070470000A4060020A80600201D
:106220002DE9F04F85B00446894692469B46DDF83D
:1062300038800020009000BF00BFFCF799FF00905D
:1062400000BFFDF769FA00BFBAF1000F0AD0BAF13A
:10625000010F0DD0BAF5004F05D06FF40040504447
:1062600060B906E000BF206A40EA0900206216E03B
:1062700000BF206A20EA0900206210E000BFFDF79D
:1062800065FA00BF0098FCF777FF00BF00BF45F636
:106290002560A8F80000002005B0BDE8F08F00BF21
:1062A000C4F824B004F1080001900198008968B98D
:1062B00000BFFDF74BFA00BF0098FCF75DFF00BF81
:1062C00000BF0020A8F80000206AE5E700BF714881
:1062D0000078401C6F49087008460078012801D1F9
:1062E00001F016F800BFFDF731FA00BF0098FCF787
:1062F00043FF00BF00BF00BF01980768BD6889E089
:106300007868029095F8880000F00F0003900398D9
:10631000012821D002282ED0042802D0082836D106
:106320000EE0206AD5F8801000EA0106D5F880005A
:10633000B04204D15A463146284600F0AFF863E037
:10634000206AD5F8801000EA010626B15A46314687
:10635000284600F0A3F857E0D5F88000216A20EA2B
:106360000106D5F88000B04204D15A46314628468D
:1063700000F094F848E0D5F88000216A20EA010690
:1063800026B15A463146284600F088F83CE000BF66
:1063900000BF00BFFCF7ECFE009000BFFDF7BCF9AA
:1063A00000BF3C480078401E3A4908700846007813
:1063B000D0B900F0BBFF3848008800280BDD00BFD3
:1063C000FDF7C4F900BF0098FCF7D6FE00BF00BF80
:1063D00000F070FF11E000BFFDF7B8F900BF0098B2
:1063E000FCF7CAFE00BF08E000BFFDF7AFF900BF31
:1063F0000098FCF7C1FE00BF00BF00BF43F6FF20BE
:10640000A8F80000002047E700BF029F0FB1BD6859
:1064100000E00025002D7FF473AF00BF00BF00BF78
:10642000FCF7A6FE009000BFFDF776F900BF194803
:106430000078401E174908700846007808B900F037
:1064400075FF00BFFDF782F900BF0098FCF794FECE
:1064500000BF00BF00BF0AF4004008B9FEF760FBB0
:1064600000BF00BFFCF784FE009000BFFDF754F9A9
:1064700000BF206A049000BFFDF768F900BF0098D4
:10648000FCF77AFE00BF00BF0020A8F800000498C7
:1064900002E70000D40600209806002070B50446EC
:1064A0000E46154634342665002060702070E56085
:1064B000A078343C082816D2DFE800F0040508096B
:1064C0000706101100BF00BF00BF0DE000BF20464F
:1064D00001F0DEFC002084F8360005E000BF042057
:1064E00084F8360000E000BF00BF204600F069FCE1
:1064F00070BD0000002400BF1DE000BF00BFFCF71E
:1065000037FE044600BFFDF707F900BF0A480068E0
:10651000401C0949086009480068401C0749086098
:1065200000BFFDF713F900BF2046FCF725FE00BFB2
:1065300000BFFEF781F9E0E780060020EC060020AE
:1065400010B58AB0044600200E4908600B200021D7
:106550000591CDE90704069108460B4909680B4AE5
:1065600012680B4B1B68CDE90132CDE903101F20E7
:106570000023084A08A100900C48FEF725FD0AB048
:1065800010BD00008006002084A8000880A8000834
:106590007CA80008F564000875432F4F532D494926
:1065A000492049646C65205461736B00FC380020FD
:1065B0002DE9F84F04460D4616461F46DDE90BABA4
:1065C000DDF82890DDF834800020009000BF00BF87
:1065D000FCF7CEFD009000BFFDF79EF800BF2C48F1
:1065E00000882C49098888423EDA29480088401CE6
:1065F00027490880284800880988884203DA244807
:106600000088254908802548006804602348006800
:10661000856022480068C6602048006807821F48DD
:106620000068C0F814901D480068A0F818A01B4826
:106630000068C0F81CB01948006840681749086035
:10664000012017490881174808604860002000F0C1
:1066500087FC1548007818B1134800781349087072
:106660000020A8F8000008E011480088401C1049EC
:10667000088044F25360A8F8000000BFFDF766F8F8
:1066800000BF0098FCF778FD00BF00BFBDE8F88FA1
:106690009806002090A800089A0600209006002086
:1066A000983A0020C4390020BA060020BC06002019
:1066B0009C0600203EB5594800680068584A811A77
:1066C000904279D00FDC5749084400283ED0564903
:1066D0000844A8B155490844002860D054490844EA
:1066E00000286AD13FE053480844002850D052495E
:1066F0000844002862D0514908440028F1D110E034
:1067000002A8464D00902D68EB69444D2D682A8BF8
:10671000424D2D686969414D2D68A868FFF780FDDD
:106720007AE002A93D480068C0693C4DCDE900010E
:106730002D682B8B394D2D682A8A384D2D68E968D4
:10674000364D2D68A86800F03BFC65E0334B1B68B4
:10675000DA69324B1B68198B304B1B68986802ABA7
:1067600000F084FE58E002A92C480068C0692B4D57
:10677000CDE900012D682B8B284D2D682A8A274DE5
:106780002D68E968254D2D68A86801F04BFA43E0B3
:1067900022490968886802A901F088FB3CE01F4B88
:1067A0001B68DA691D4B1B68198B1C4B1B689868AA
:1067B00002AB01F045FC2FE007E02CE01749096827
:1067C000886802A901F010FF26E01D49097801EB55
:1067D00041011C4A02EB810000F0C6FD0F48006831
:1067E00002AB0021C269184801F02AFC1748006872
:1067F000401E164908600846006858B914480068E9
:106800000860FDF717F8044602AB22460021114844
:1068100001F016FC00E000BF00BF3EBD9406002062
:106820005449434BADBAB2BE0DF90BFAF2F8F7FF7B
:106830000006F6FF00F7FDF700FFEFFF03FE0FFE77
:10684000BC060020983A0020E03C002028070020E9
:1068500024070020A83D0020002700BF56E00026A6
:1068600052E000BF00BFFCF783FC074600BFFCF707
:1068700053FF00BF2648008898B9002025490881A9
:106880000860486000F07EFB00BFFCF75FFF00BFC0
:106890003846FCF771FC00BF00BFFEF741F9012646
:1068A00032E000BFFCF752FF00BF3846FCF764FC43
:1068B00000BF00BFFCF7BEFF0546FFF7FBFEFCF77D
:1068C000B9FF441B14480068A04201D2124804607A
:1068D00000BF00BFFCF74CFC074600BFFCF71CFFE5
:1068E00000BF0E48006840680C49086008480088EE
:1068F000401E0749088000BFFCF728FF00BF38464C
:10690000FCF73AFC00BF00BF002EAAD0A7E70000AA
:1069100098060020983A0020A00600209406002047
:10692000F0B589B00546002031490880314800683B
:1069300020B944F25260288009B0F0BD2E4800888A
:10694000022803DA44F254602880F5E700202B493E
:106950000860284804682646203600270CE02848AE
:1069600020600020A060E06020826061208366607B
:1069700020342036781C87B21F4800888742EEDB1F
:10698000203C1C48066866601E4806601E4806607B
:1069900000201E4908801E4908801E48006818B95A
:1069A00044F255602880C7E71B4800681B49096806
:1069B000884203D244F256602880BDE703200021BC
:1069C0000591CDE90705069113480068144A12683D
:1069D000104B1B68CDE90301CDE9013200910B4654
:1069E000104A11A11748FEF7EFFA00BFA4E7000014
:1069F0009C0600208CA8000890A80008A006002093
:106A00004E4F4E4590060020940600209806002028
:106A10009A06002098A80008A0A80008D8A8000896
:106A20009CA800085968000875432F4F532D494909
:106A30004920495352205175657565205461736B27
:106A400000000000C43900200021034A1160034AFD
:106A50001180018070470000AC060020B0060020C5
:106A600070B501461A4D2D681DB945F21E750D8091
:106A700070BD184D2D881DB945F21D750D80F7E7C5
:106A8000134D28682A681032124D2D886D1EACB245
:106A9000002308E00260002545600581C5601030D4
:106AA00010325D1CABB2A342F4DB002505604560EB
:106AB0000581C560064D2D68074E3560054D2D8852
:106AC000B5800025F58035810D8000BFD0E700003E
:106AD000BCA80008B4A800088C3A002010B50146F4
:106AE00048894B89002B17DD0A680C4B1B68136023
:106AF0000A4C4B6823602346DB884C891B1B074CE0
:106B0000E38023469B884C892344044CA3800023C4
:106B10004B818B810B604B6010BD00008C3A0020D4
:106B20000181002242818281026042607047000040
:106B30002DE9F0410D46DDE90674B0F80AC0B0F861
:106B40000880C44505DB46F2935CA4F800C0BDE8AC
:106B5000F081DFF8DCC0BCF804C0BCF1000F04D148
:106B600045F21D7CA4F800C0F1E7DFF8C4C0DCF8F2
:106B70000010DFF8BC80D1F800C0C8F800C0C446DF
:106B8000BCF804C0ACF1010CA8F804C0C446BCF8C1
:106B900006C00CF1010CA8F806C0C446BCF808C039
:106BA000B8F80680C44507DADFF884C0BCF806C030
:106BB000DFF87C80A8F808C0B0F80AC0BCF1000F6C
:106BC0000AD1016041604FF0010CA0F80AC04FF0FB
:106BD000000CC1F800C017E003F0100CBCF1000F6E
:106BE00007D10668316001604FF0000CC1F800C0A9
:106BF00004E0D0F804C0C1F800C04160B0F80AC099
:106C00000CF1010CA0F80AC0B0F80CC0B0F80A8072
:106C1000C44503DAB0F80AC0A0F80CC04D600A8180
:106C2000CF604FF0000CA4F800C000BF8FE7000059
:106C30008C3A00200021034A1160034A1180018030
:106C400070470000B4060020B80600202DE9F0418E
:106C500005460C4616461F461548006880F8346005
:106C600000201349096881F835003946104800684A
:106C700000F00AFF6CB104F10808EC60012229461B
:106C80000B48006800F016F82946404600F066F808
:106C900006E0002006490968C887054909680863B5
:106CA00003480168204600F019F8BDE8F0810000B3
:106CB0002C07002010B5C287016300230AE00024DE
:106CC0004C600C600C614C610C83CC61886020319D
:106CD0005C1CA3B29342F2DB10BD000030B548B19A
:106CE0004568C1F8C45000F10804226893681D6A21
:106CF000C56113E091F83450022D02D0072D08D160
:106D000003E007A5C1F8C45007E007A5C1F8C450C7
:106D100003E008A5C1F8C45000BF00BF30BD0000AB
:106D20005461736B205100005461736B2053656D87
:106D3000000000002000000030B507A5C1F8C450D5
:106D400000F1080422681AB193681D6AC56101E068
:106D500001A5C56130BD000020000000F0B58E68BF
:106D600096F8375007893FB90127078100274F6000
:106D70000F600160416023E007897F1C0781026882
:106D800006E0946894F83770AF4200DD02E0526884
:106D9000002AF6D100BF32B900274F6043680B606C
:106DA000596041600CE017682FB9116000270F602F
:106DB0004A60016004E013680B604A60596011602A
:106DC000F0BD2DE9F0410446256BE68F0AE0D5F8C9
:106DD0000C8008F108072946384600F00AF82035EB
:106DE000701E86B2002EF2DC0020E0872063BDE832
:106DF000F08110B50489012C03D1002404604460A3
:106E000011E00C6824B94A680024146002600AE0AA
:106E10004C6824B90B6800245C60436003E00B6895
:106E20004A685A6013600489641E048100244C601F
:106E30000C6010BD2DE9F84306460C4617469846EF
:106E4000089D94F83600082850D2DFE800F00405C9
:106E5000080906072B2C00BF00BF00BF47E000BF9A
:106E600094F83400032807D143463A462146304679
:106E7000009500F03FF803E0E765A4F86080256422
:106E800036B12046FFF79DFF21463046FFF754FFFD
:106E9000204600F0FDFF00203434A070607004F83C
:106EA000340924E000BF94F83400032807D1434696
:106EB0003A4621463046009500F01CF803E0E765AD
:106EC000A4F860802564204601F048FD36B12046D4
:106ED000FFF777FF21463046FFF72EFF04203434BA
:106EE000A0700020607004F8340900E000BF00BF0B
:106EF000BDE8F883F0B50446059E086BCD8F0AE027
:106F0000C768A74204D1046142610383C66104E0FB
:106F100020306F1EBDB2002DF2DC00BFF0BD0000BE
:106F200070B50025074C03E005F12000C5B2241D13
:106F300020680028F8D02068FCF725F92844C5B25D
:106F4000284670BD60060020002004E00021034AAE
:106F500042F82010401C0028F8D07047600600203E
:106F600030B5420900F01F030121C3F11F04A14005
:106F7000034C54F822400C43014D45F8224030BDEB
:106F80006006002030B5420900F01F030121C3F163
:106F90001F04A140034C54F822408C43014D45F896
:106FA000224030BD600600200021034A1160034AE0
:106FB0001180018070470000C0060020C406002038
:106FC0002DE9F04F85B007468A4693461C460020BF
:106FD000029000BF00BF00BFFCF7CAF8029000BFDC
:106FE000FCF79AFB00BF56480078401C54490870D3
:106FF00008460078012801D100F08AF900BFFCF7AB
:10700000A5FB00BF0298FCF7B7F800BF00BF00BFA8
:1070100007F10806308900284CD104F0100010B99F
:107020004FF0000801E04FF01008DDE90E01434683
:107030005A46CDE90001514607F12000FFF778FDDF
:1070400000BF00BF00BFFCF793F8029000BFFCF741
:1070500063FB00BF3A480078401E39490870084673
:107060000078D0B900F062F93648008800280BDDBE
:1070700000BFFCF76BFB00BF0298FCF77DF800BF78
:1070800000BF00F017F911E000BFFCF75FFB00BF85
:107090000298FCF771F800BF08E000BFFCF756FB50
:1070A00000BF0298FCF768F800BF00BF00BF05B042
:1070B000BDE8F08F04F4007008B1358900E00125C7
:1070C000D6F8009011E0D9F808000390D9F8040030
:1070D00004900E985B465246009038460399FFF79D
:1070E000A9FEDDF81090681E85B2002DEBD100BF1F
:1070F00000BF00BFFCF73CF8029000BFFCF70CFBA0
:1071000000BF0F480078401E0D49087008460078FF
:1071100008B900F00BF900BFFCF718FB00BF02989C
:10712000FCF72AF800BF00BF00BF04F4004008B914
:10713000FDF7F6FC00210F98018000BFB7E70000C3
:10714000D40600209806002000210AE001EB41024D
:10715000054B03EB820000220281026042604A1C60
:10716000D1B22029F2D37047983A002010B50446D6
:1071700094F83700FFF7F4FE94F8370005490978D2
:10718000884203D1204600F027F802E0204600F0B4
:1071900003F810BDBA06002010B590F8373003EBA5
:1071A00043030C4C04EB83010B893BB901230B8196
:1071B0000023C36003610860486009E00B895B1C21
:1071C0000B810B68C360002303610A6810610860CB
:1071D00010BD0000983A002010B590F8373003EB4E
:1071E00043030B4C04EB83010B893BB901230B8157
:1071F0000023C36003610860486008E00B895B1CE2
:107200000B810023C3604A680261D060486010BDF2
:10721000983A002010B501460C8924B1012C03D006
:10722000022C0CD101E000BF14E008684A6802613A
:107230000024C4601461D0600A6048600AE00868F5
:107240004A68C36800241C61C4600261D0600B609E
:10725000486000BF00BF10BD2DE9F041054695F81C
:10726000370000EB4000124901EB80042F69EE6803
:1072700087B946B9002020812060606095F837000A
:10728000FFF780FE0EE02089401E20810020306143
:10729000266007E02089401E2081FE600EB96760ED
:1072A00000E0376100202861E860BDE8F08100005F
:1072B000983A002010B5002400BFFBF759FF0446A0
:1072C00000BF00200D4908700D480E4908600846AF
:1072D0000068D0F89000401C0968C1F890000A4886
:1072E0000068401C084908604FF08050074908605A
:1072F00000BF2046FBF740FF00BF10BDBB060020CB
:10730000C4390020300700200007002004ED00E011
:1073100010B504480078012803D1FCF78BFA024924
:10732000086010BDD4060020C806002010B50A4829
:10733000007880B9FCF77EFA08490968441A0848C1
:107340000068A04201D20648046006480068A042D6
:1073500001D20448046010BDD4060020C8060020F5
:10736000CC060020D006002070B505460026354822
:107370000078012800D070BD00BF00BFFBF7F8FE09
:10738000064600BFFCF7C8F900BF2C684CB900BF27
:10739000FCF7DCF900BF3046FBF7EEFE00BF00BF94
:1073A000E9E72948844209D100BFFCF7CFF900BFC3
:1073B0003046FBF7E1FE00BF00BFDCE7A06D10B177
:1073C000A06D401EA065A06D48B100BFFCF7BEF9DE
:1073D00000BF3046FBF7D0FE00BF00BFCBE72889D7
:1073E000022809DA00BFFCF7B1F900BF3046FBF70D
:1073F000C3FE00BF00BFBEE714480078002809DDC7
:1074000000BFFCF7A3F900BF3046FBF7B5FE00BF95
:1074100000BFB0E72846FFF7FDFE2C68606D18B985
:107420000B480068A06501E0606DA06500BFFCF737
:107430008DF900BF3046FBF79FFE00BF00BF00BFC5
:1074400099E70000DC060020FC380020D40600206C
:10745000D80600200021034A1160034A11800180F0
:1074600070470000E0060020E40600202DE9FF5FE1
:107470000446884691461D460020019000BF00BF8B
:10748000FBF776FE019000BFFCF746F900BF04F160
:1074900008073889002857D10420012804D0022881
:1074A00016D004283AD127E0206AFF280FD100BF68
:1074B000FCF74CF900BF0198FBF75EFE00BF00BF70
:1074C00046F6C5502880002004B0BDE8F09F26E0B5
:1074D0004FF6FF71206A88420DD100BFFCF736F9E4
:1074E00000BF0198FBF748FE00BF00BF46F6C5503D
:1074F00028800020E8E712E0206A401C68B900BF3D
:10750000FCF724F900BF0198FBF736FE00BF00BF6F
:1075100046F6C55028800020D6E700E000BF00BF37
:10752000206A401C2062D4F820A0C4F8249000BF38
:10753000FCF70CF900BF0198FBF71EFE00BF00BF6F
:10754000002028805046BFE700BF2D480078401C2F
:107550002B49087008460078012801D1FFF7D8FEB2
:1075600000BFFCF7F3F800BF0198FBF705FE00BF72
:1075700000BF00BF08F4007008B13E8900E001269A
:10758000D7F800B011E0DBF808000290DBF8040047
:10759000039000231A46CDF8009020460299FFF789
:1075A00049FCDDF80CB0701E86B2002EEBD1D4F889
:1075B00020A000BF00BF00BFFBF7DAFD019000BFB5
:1075C000FCF7AAF800BF0E480078401E0C4908706E
:1075D0000846007808B9FFF7A9FE00BFFCF7B6F827
:1075E00000BF0198FBF7C8FD00BF00BF00BF08F453
:1075F000004008B9FDF794FA00202880504663E760
:10760000D406002086B00020009000BF06E0D949D3
:107610000968480001AA0021FEF708FAD648007858
:107620000128F4D101A8FDF791FB0027D348006899
:10763000D0490968884205D9D0480068CD49096811
:10764000B0FBF1F727B9CD4800680A21B0FBF1F78C
:107650008EE1FCF7EFF88246FCF748F8C84908606D
:1076600000BF00BFFBF784FD009000BFFCF754F89B
:1076700000BFC4480068C44908600020C1490860D0
:1076800000BFFCF763F800BF0098FBF775FD00BF73
:1076900000BFBE480068BC490968884248D9BB4859
:1076A0000068BB49884205D242F210700390012065
:1076B000029023E0B5480068B649884205D24FF4ED
:1076C0007A7003900A20029018E0B0480068B2492E
:1076D000884203D26420039002900FE0AB48006818
:1076E000AE49884205D20A2003904FF47A70029086
:1076F00004E00120039042F210700290A348016858
:107700000298B1FBF0F9A049039809684843B0FB1F
:10771000F9F042F21071081AA1490880A1480088C6
:107720000988884208DA9E4800889E49088003E05C
:1077300042F210709A490880FDF73CFC002500BF1A
:1077400000BFFBF715FD009000BFFBF7E5FF00BF92
:107750009548046800BFFBF7F9FF00BF0098FBF7EE
:107760000BFD00BF00BF72E000BF00BF00BFFBF712
:10777000FFFC009000BFFBF7CFFF00BF8B480078F5
:10778000401C8A49087008460078012801D1FFF79B
:10779000BFFD00BFFBF7DAFF00BF0098FBF7ECFC72
:1077A00000BF00BF00BF54F89C0F6060002044F889
:1077B0009C0900BF00BF00BFFBF7DAFC009000BFD0
:1077C000FBF7AAFF00BF79480078401E7749087090
:1077D00008460078D0B9FFF7A9FD75480088002851
:1077E0000BDD00BFFBF7B2FF00BF0098FBF7C4FC46
:1077F00000BF00BFFFF75EFD11E000BFFBF7A6FF73
:1078000000BF0098FBF7B8FC00BF08E000BFFBF723
:107810009DFF00BF0098FBF7AFFC00BF00BF00BF9B
:10782000D4F8A000054400BF00BFFBF7A1FC009006
:1078300000BFFBF771FF00BFD4F8C04000BFFBF7EB
:1078400085FF00BF0098FBF797FC00BF00BF002C2E
:107850008AD145B34E48854205D242F21070059058
:107860004FF0010B1BE04B48854205D24FF47A7074
:1078700005904FF00A0B12E04748854203D264207E
:10788000059083460BE04548854204D20A200590C6
:107890004FF47A7B03E00120059042F2107BB5FBA8
:1078A000FBF0049003E0002005900120049000BF4D
:1078B00000BFFBF75DFC009000BFFBF72DFF00BF92
:1078C0003948046800BFFBF741FF00BF0098FBF791
:1078D00053FC00BF00BF2FE0D4F8A0000599484337
:1078E0000499B0FBF1F086B242F21070864200D9E2
:1078F0000646A4F88C60B4F88E00B04201DAA4F811
:107900008E6001AB04F1AC02111D2046FDF73AFF79
:1079100000BF00BFFBF72CFC009000BFFBF7FCFE94
:1079200000BFD4F8C04000BFFBF710FF00BF0098B5
:10793000FBF722FC00BF00BF002CCDD11D48007812
:10794000012805D100201B49087001A8FDF7FEF9A8
:10795000FBF770FFA0EB0A0817480068404502D209
:107960001548C0F8008001AA00213846FEF75EF8ED
:107970006FE60000C4A80008F8060020DCA8000894
:1079800088060020EC060020F4060020F006002007
:10799000801A060000093D00005A62020084D717D1
:1079A000E8060020EA06002004070020D406002094
:1079B00098060020E6060020FC06002010B58AB0DC
:1079C000044600201F4908601F4908601F490860DD
:1079D0001F4908701F4908701F48006820B946F603
:1079E0002B6020800AB010BD1C4800681C49096843
:1079F000884203D246F62C602080F3E719480078CD
:107A00001F2803D346F62A602080EBE703200021DD
:107A10000591CDE907040691084610490968124A04
:107A200012680D4B1B68CDE90132CDE903100D48FA
:107A3000007800230D4A0EA100901248FDF7C4FA09
:107A400000BFCFE7EC060020F4060020F00600207F
:107A5000F8060020E6060020C8A80008D0A8000804
:107A6000D8A80008C0A80008CCA80008057600081F
:107A700075432F4F532D4949492053746174205445
:107A800061736B00183C002038B504460D4685B183
:107A90006B4602222946204600F082FEBDF8000017
:107AA00018B9032084F8360006E0022084F8360076
:107AB00002E0022084F836002046FFF7CDFB38BDF7
:107AC0000021C0F8BC100949096819B90021C0F8A3
:107AD000C01007E005490968C0F8C01003490968EB
:107AE000C1F8BC000149086070470000040700208D
:107AF000D0F8BC20D0F8C0104AB90D4B196011B1B4
:107B00000023C1F8BC300023C0F8C0300FE029B911
:107B10000023C2F8C030C0F8BC3008E0C2F8C01082
:107B2000C1F8BC200023C0F8C030C0F8BC3070479A
:107B3000040700200021044A1160044A1180044A0D
:107B40001160018070470000040700200807002032
:107B50000007002070B5044600202060A06060602F
:107B6000E06020616061A061E0612BA020620020E4
:107B70006062A062E0622063E0872064E065A4F8B0
:107B80006000002104F16400FEF7CAFF002044F801
:107B9000740F6060E060A0822061743C002506E004
:107BA000002104F17C0040F82510681CC5B2002DAE
:107BB000F6D000203434206120676067606084F86C
:107BC0005600E067A06720814FF000406061002010
:107BD000A061E06120626062A4F85800A4F85A0035
:107BE000E0652066FBF726FE064666660020A06676
:107BF000C4F88000C4F8840020706070A070202059
:107C0000E0700020C4F88800C4F88C0004A0C4F818
:107C10009000343C70BD00003F5461736B00000065
:107C2000200000002DE9FC4704460F469046994687
:107C3000DDE90A654FF0000A00BF00BF00BFFBF797
:107C400097FA824600BFFBF767FD00BF8D480078BA
:107C5000401C8C49087008460078012801D1FFF7C4
:107C600057FB00BFFBF772FD00BF5046FBF784FADD
:107C700000BF00BF00BF0CB9834804680020288003
:107C800094F8360008287CD2DFE800F00405484963
:107C900006074A4B00BF00BF00BF4B46424639466D
:107CA00004F16400CDE90065FEF742FF00BF00BFAC
:107CB00000BFFBF75DFA824600BFFBF72DFD00BF5A
:107CC00070480078401E6F49087008460078D0B9A7
:107CD000FFF72CFB6D48008800280BDD00BFFBF789
:107CE00035FD00BF5046FBF747FA00BF00BFFFF766
:107CF000E1FA11E000BFFBF729FD00BF5046FBF79A
:107D00003BFA00BF08E000BFFBF720FD00BF504674
:107D1000FBF732FA00BF00BF00BFAFE000BF00BFFB
:107D200000BF94F8340002282CD143463A4621463D
:107D300000200096FFF77EF800BF00BF00BFFBF7F2
:107D400017FA824600BFFBF7E7FC00BF4D480078FA
:107D5000401E4C4908700846007808B9FFF7E6FA5B
:107D600000BFFBF7F3FC00BF5046FBF705FA00BF6E
:107D700000BF00BF09F40040002843D1FCF7D0FE4B
:107D800040E040E04B464246394604F16400CDE90C
:107D90000065FEF7CDFE00BF00BF00BFFBF7E8F9AE
:107DA000824600BFFBF7B8FC00BF36480078401E93
:107DB0003449087008460078D0B9FFF7B7FA33485D
:107DC000008800280BDD00BFFBF7C0FC00BF504659
:107DD000FBF7D2F900BF00BFFFF76CFA11E000BF5C
:107DE000FBF7B4FC00BF5046FBF7C6F900BF08E044
:107DF00000BFFBF7ABFC00BF5046FBF7BDF900BF6F
:107E000000BF00BF3AE000BF00BF00BFFBF7B0F902
:107E1000824600BFFBF780FC00BF1A480078401E76
:107E20001849087008460078D0B9FFF77FFA17485C
:107E3000008800280BDD00BFFBF788FC00BF504620
:107E4000FBF79AF900BF00BFFFF734FA11E000BF5B
:107E5000FBF77CFC00BF5046FBF78EF900BF08E043
:107E600000BFFBF773FC00BF5046FBF785F900BF6E
:107E700000BF00BF46F62D60288000BF00BFBDE8F0
:107E8000FC870000D40600202C0700209806002064
:107E900010B50446204600F061FD94F8360000F06D
:107EA000040010B92046FFF761F910BD70B5044613
:107EB0000D46002600BF00BFFBF75AF9064600BF7B
:107EC000FBF72AFC00BF0020288094F83600082821
:107ED0007ED2DFE800F00405060714566A8000BF72
:107EE00000BF00BF00BFFBF731FC00BF3046FBF70F
:107EF00043F900BF00BF47F2531028808CE000BF59
:107F000048480078401C4749087008460078012816
:107F100001D1FFF7FDF900BFFBF718FC00BF3046A9
:107F2000FBF72AF900BF00BF00BF14F88A0F401EFC
:107F3000207014F88A0928B9002084F836002046F9
:107F4000FFF7A6FF00BF00BF00BFFBF711F9064611
:107F500000BFFBF7E1FB00BF32480078401E31490B
:107F600008700846007808B9FFF7E0F900BFFBF792
:107F7000EDFB00BF3046FBF7FFF800BF00BF00BFBE
:107F80004AE014F88A0F401E207014F88A0910B9CC
:107F9000012084F8360000BFFBF7D8FB00BF304655
:107FA000FBF7EAF800BF00BF36E014F88A0F401E66
:107FB000207014F88A0910B9022084F8360000BF36
:107FC000FBF7C4FB00BF3046FBF7D6F800BF00E06C
:107FD00015E000BF20E014F88A0F401E207014F84E
:107FE0008A0910B9032084F8360000BFFBF7AEFB06
:107FF00000BF3046FBF7C0F800BF00BF0CE000BF79
:10800000FBF7A4FB00BF3046FBF7B6F800BF00BF8C
:1080100046F62D60288070BD00BFFCF781FD00BFD3
:10802000F9E70000D406002008B504480068FDF711
:1080300075FA69460020FDF71DF908BD2C070020E0
:108040002DE9F8430446884617461D464FF00009BF
:1080500000BF00BF00BFFBF78BF8814600BFFBF7F6
:108060005BFB00BFFB480078401CFA4908700846DB
:108070000078012801D1FFF74BF900BFFBF766FB41
:1080800000BF4846FBF778F800BF00BF00BF0CB93F
:10809000F148046827640020288094F836000828F6
:1080A0007AD2DFE800F00405FEFD0607FCFB00BF06
:1080B00000BF00BF0420012804D0022843D00428B8
:1080C0006BD184E0606CFF283CD100BF00BF00BFD3
:1080D000FBF74EF8814600BFFBF71EFB00BFDD48F3
:1080E0000078401EDB49087008460078D0B9FFF7D9
:1080F0001DF9DA48008800280BDD00BFFBF726FBDE
:1081000000BF4846FBF738F800BF00BFFFF7D2F8C2
:1081100011E000BFFBF71AFB00BF4846FBF72CF845
:1081200000BF08E000BFFBF711FB00BF4846FBF7AC
:1081300023F800BF00BF00BF46F6C55028800020CE
:10814000BDE8F88385E04FF6FF71606C88423DD151
:1081500000BF00BF00BFFBF70BF8814600BFFBF775
:10816000DBFA00BFBB480078401EBA4908700846D9
:108170000078E0B9FFF7DAF8B848008800280DDD8C
:1081800000BFFBF7E3FA00BF4846FAF7F5FF00BF70
:1081900000BFFFF78FF813E0E2E159E000BFFBF703
:1081A000D5FA00BF4846FAF7E7FF00BF08E000BF76
:1081B000FBF7CCFA00BF4846FAF7DEFF00BF00BF6E
:1081C00000BF46F6C55028800020B9E741E0606C4A
:1081D000401CD8BB00BF00BF00BFFAF7C9FF8146F3
:1081E00000BFFBF799FA00BF9A480078401E9949F2
:1081F000087008460078D0B9FFF798F897480088CB
:1082000000280BDD00BFFBF7A1FA00BF4846FAF7D4
:10821000B3FF00BF00BFFFF74DF811E000BFFBF751
:1082200095FA00BF4846FAF7A7FF00BF08E000BF75
:10823000FBF78CFA00BF4846FAF79EFF00BF00BF6D
:1082400000BF46F6C5502880002079E7FFE700E030
:1082500000BF00BF606C401C6064666C00BF00BF64
:1082600000BFFAF785FF814600BFFBF755FA00BF54
:1082700078480078401E7749087008460078F8B9B9
:10828000FFF754F875480088002810DD00BFFBF7A1
:108290005DFA00BF4846FAF76FFF03E01EE01CE0FE
:1082A0001AE018E000BF00BFFFF704F811E000BFBC
:1082B000FBF74CFA00BF4846FAF75EFF00BF08E044
:1082C00000BFFBF743FA00BF4846FAF755FF00BF6F
:1082D00000BF00BF80E100BF00BF00BF94F83400C2
:1082E00007282CD100231A46214618460097FEF78E
:1082F000A1FD666C00BF00BF00BFFAF739FF8146E1
:1083000000BFFBF709FA00BF52480078401E5149F0
:1083100008700846007808B9FFF708F800BFFBF7B7
:1083200015FA00BF4846FAF727FF00BF00BF00BF9D
:1083300008F40040002801D1FCF7F2FB0FE1042013
:10834000012804D0022842D0042872D189E0606C50
:10835000FF283BD100BF00BF00BFFAF709FF8146ED
:1083600000BFFBF7D9F900BF3A480078401E3949F1
:10837000087008460078D0B9FEF7D8FF3748008863
:1083800000280BDD00BFFBF7E1F900BF4846FAF714
:10839000F3FE00BF00BFFEF78DFF11E000BFFBF74B
:1083A000D5F900BF4846FAF7E7FE00BF08E000BF76
:1083B000FBF7CCF900BF4846FAF7DEFE00BF00BF6E
:1083C00000BF46F6C55028800020B9E68BE04FF686
:1083D000FF71606C884243D100BF00BF00BFFAF755
:1083E000C7FE814600BFFBF797F900BF1948007828
:1083F000401E1849087008460078D8B9FEF796FF65
:108400001648008800280BDD00BFFBF79FF900BF6E
:108410004846FAF7B1FE00BF00BFFEF74BFF12E07F
:1084200000BFFBF793F900BF4846FAF7A5FE00BF6F
:1084300009E057E000BFFBF789F900BF4846FAF7AB
:108440009BFE00BF00BF00BF46F6C550288000203D
:1084500076E60000D40600202C07002098060020B5
:1084600041E0606C401CD8BB00BF00BF00BFFAF702
:108470007FFE814600BFFBF74FF900BF58480078E8
:10848000401E5749087008460078D0B9FEF74EFFE5
:108490005448008800280BDD00BFFBF757F900BFE8
:1084A0004846FAF769FE00BF00BFFEF703FF11E080
:1084B00000BFFBF74BF900BF4846FAF75DFE00BF6F
:1084C00008E000BFFBF742F900BF4846FAF754FE48
:1084D00000BF00BF00BF46F6C550288000202FE631
:1084E000FFE700E000BF00BF606C401C6064666C8A
:1084F00000BF00BF00BFFAF73BFE814600BFFBF79D
:108500000BF900BF36480078401E35490870084610
:108510000078D0B9FEF70AFF3248008800280BDD4A
:1085200000BFFBF713F900BF4846FAF725FE00BF6E
:1085300000BFFEF7BFFE11E000BFFBF707F900BF69
:108540004846FAF719FE00BF08E000BFFBF7FEF847
:1085500000BF4846FAF710FE00BF00BF00BF3BE077
:1085600000BF00BF00BFFAF703FE814600BFFBF764
:10857000D3F800BF1A480078401E19490870084611
:108580000078D0B9FEF7D2FE1648008800280BDD2F
:1085900000BFFBF7DBF800BF4846FAF7EDFD00BF70
:1085A00000BFFEF787FE11E000BFFBF7CFF800BF6A
:1085B0004846FAF7E1FD00BF08E000BFFBF7C6F848
:1085C00000BF4846FAF7D8FD00BF00BF00BF46F61F
:1085D0002D602880002600BF00BF3046B0E50000B7
:1085E000D40600209806002070B504460D460026EB
:1085F00000BF00BFFAF7BCFD064600BFFBF78CF8D2
:1086000000BF0CB95A48046859480068844210D128
:108610005848007800280CDD00BFFBF797F800BF32
:108620003046FAF7A9FD00BF00BF46F66350288028
:1086300070BD0020288094F83600082873D2DFE847
:1086400000F0044252627374757600BF49480078A6
:10865000401C4849087008460078012801D1FEF7FF
:1086600057FE00BFFBF772F800BF3046FAF784FDF3
:1086700000BF00BF00BF042084F83600012084F84A
:108680008A002046FEF7E8FD00BF00BF00BFFAF7F2
:108690006FFD064600BFFBF73FF800BF3548007886
:1086A000401E344908700846007808B9FEF73EFEBF
:1086B00000BFFBF74BF800BF3046FAF75DFD00BF87
:1086C00000BF00BF4FE0052084F83600012084F889
:1086D0008A0000BFFBF73AF800BF3046FAF74CFDBE
:1086E00000BF00BF3FE0062084F83600012084F878
:1086F0008A0000BFFBF72AF800BF3046FAF73CFDBE
:1087000000BF00BF2FE0072084F83600012084F866
:108710008A0000BFFBF71AF800BF3046FAF72CFDBD
:1087200000BF00BF1FE011E000BF00BF00BF94F812
:108730008A00401C84F88A0000BFFBF707F800BFDE
:108740003046FAF719FD00BF00BF0CE000BFFAF792
:10875000FDFF00BF3046FAF70FFD00BF00BF46F631
:108760002D60288064E700BFFCF7DAF900BF5FE7FF
:108770002C070020D4060020002108E0064A02EB66
:10878000C100002202608280C2804A1C91B2034A6A
:1087900012889142F2DB7047EC350020F4A8000803
:1087A0002DE9F04F0C4616461D46042E1ED1DFF86B
:1087B000A091D9F80090A4EB0909A9F1010313F5E0
:1087C000803F0DD94FF00009C0F84C90C0F8509090
:1087D000C0F81C9047F27E29A5F80090BDE8F08F04
:1087E000C46403F10109C0F850903FE084B3082E3F
:1087F00025D1D0F8489009EB0407DFF85491D9F857
:108800000090A7EB0909A9F10103A34201D2C764B3
:1088100006E0DFF83C91D9F80090A144C0F84C90F4
:10882000DFF82CA1D0F84C90DAF800A0A9EB0A09E7
:10883000C0F85090D0F84C90C0F8489016E0DFF89F
:108840001091D9F80090A144C0F84C9004650DE057
:10885000FFE74FF00009C0F84C90C0F85090C0F806
:108860001C9047F27E29A5F80090B7E7DFF8E4A056
:10887000BAF800A0D0F84C90B9FBFAFB0AFB1B99A0
:108880001FFA89F8DFF8D09009EBC802B2F804901B
:10889000B9F1000F0BD14FF00009C0F81490C0F8E7
:1088A000189010604FF00109A2F804903EE01168A2
:1088B00034E0DFF89CA0D1F84C90DAF800A0A9EBE6
:1088C0000A09C1F85090D0F85090D1F850A0D14585
:1088D0000ED9D1F81490B9F1000F01D049691DE00B
:1088E0004FF00009C0F8149081614861002115E043
:1088F000D1F81890B9F1000F07D14FF00009C0F876
:10890000189041618861106007E0D1F818C0C0F884
:1089100018C04161CCF81400886100210029C8D139
:10892000B2F8049009F10109A2F80490B2F8069097
:10893000B2F804A0D14503DAB2F80490A2F8069088
:10894000C2614FF00009A5F8009000BF46E70000A3
:108950000C070020F4A80008EC35002010B5C2690F
:10896000BAB1002404651468844205D141691160DC
:1089700039B100248C6104E0816943694B6103B122
:108980009961002444618461C461C4649488641E54
:10899000948010BD002006E0054A02EBC0010022D1
:1089A000CA80421C90B2034A12889042F4DB70479E
:1089B000EC350020F4A800082DE9F05F4FF0000B23
:1089C00000BF00BF00BFFAF7D3FB834600BFFAF732
:1089D000A3FE00BF7A480078401C79490870084619
:1089E0000078012801D1FEF793FC00BFFAF7AEFE34
:1089F00000BF5846FAF7C0FB00BF00BF00BFFAF740
:108A000019FF05466F480068401C6E49086008461B
:108A100000686D490988B0FBF1F201FB12001FFAF2
:108A200080FA6A4800EBCA08D8F80040002782E0C4
:108A3000002C7FD0D4F8149094F83600082875D212
:108A4000DFE800F00408051B063D075000BF00BF2B
:108A500000BF6CE05B49E06C0968401A2065594929
:108A6000E06C0968884206D1002084F83600204670
:108A7000FFF70EFA00E0012759E05249E06C09685F
:108A8000401A20654F49E06C0968884215D10020E2
:108A9000E065A4F86000FAF7CDFE20642046FEF7FA
:108AA00090F92046FFF7F4F900203434A070032039
:108AB0006070002004F8340900E0012737E04149E4
:108AC000E06C0968401A20653E49E06C09688842FC
:108AD00006D1042084F836002046FFF73FFF00E06F
