:020000040800F2
:10000000884E0020450100089D150008B513000822
:1000100025150008B90500084D7300080000000010
:1000200000000000000000000000000081630008E4
:10003000670A000800000000AF0200081D2E00083B
:100040005F0100085F0100085F0100085F01000810
:100050005F0100085F0100085F0100085F01000800
:100060005F0100085F010008F90E00085F01000849
:10007000190800085F0100083D0800085F0100083A
:100080005F0100085F0100085F0100085F010008D0
:100090005F0100085F0100085F0100085F010008C0
:1000A0005F0100085F0100085F0100085F010008B0
:1000B0005F010008A96500085F0100085F010008F2
:1000C0005F0100085F0100085F0100085F01000890
:1000D0005F010008716C00085D6E0008BD700008CB
:1000E000D50E00085F0100085F0100085F010008ED
:1000F0005F0100085F0100085F0100085F01000860
:100100005F0100085F0100085F0100085F0100084F
:100110005F0100085F0100085F0100085F0100083F
:100120005F0100085F0100085F0100085F0100082F
:10013000DFF80CD000F07AF8004800470977000893
:10014000884E00200648804706480047FEE7FEE745
:10015000FEE7FEE7FEE7FEE7FEE7FEE7FEE7FEE777
:10016000496500083101000872B6704762B67047F1
:10017000EFF3108072B6704780F31088704730BF7D
:10018000704720BF7047B0FA80F0704790FAA0F037
:10019000B0FA80F0704790FAA0F0704710B5431A9B
:1001A000934209D28318881803E010F8011D03F860
:1001B000011D521EF9D210BD40EA01039B0703D076
:1001C00009E008C9121F08C0042AFAD203E011F896
:1001D000013B00F8013B521EF9D210BDD2B201E042
:1001E00000F8012B491EFBD270470022F6E710B53C
:1001F00013460A4604461946FFF7F0FF204610BD95
:1002000030B50B46014600202022012409E021FAE6
:1002100002F59D4205D303FA02F5491B04FA02F5E3
:100220002844151EA2F10102F1DC30BD064C074D39
:1002300006E0E06840F0010394E8070098471034B6
:10024000AC42F6D3FFF778FFE07A0008007B0008A5
:1002500030B58C1810F8012B12F00F0301D110F8F3
:10026000013B120906D110F8012B03E010F8015BE5
:1002700001F8015B5B1EF9D101E001F8013B521E60
:10028000FBD1A142E6D3002030BD000018484FF05A
:10029000FF010170002080F309881648016881F38E
:1002A000088815484FF08051016062B6FEE772B6CB
:1002B000EFF3098028B1203880E8F00F0F49096872
:1002C000086000B50E4880475DF804EB0D480E4904
:1002D0000A78027009480D490A680260106890E8BF
:1002E000F00F203080F309884EF0040E62B670479C
:1002F00022ED00E06406002004ED00E03407002059
:10030000C1270008C2060020C306002038070020CD
:10031000704710B501F098F810BD000010B5ACB0F2
:10032000044600F071F800F049F92BA801F0DEFC5A
:10033000FFF7EFFFFFF7ECFFBDF8AC0000211F4A0D
:100340000223CDE90032CDE9021001221CA11EA832
:1003500002F072FCBDF8AC101EA802F005FDBDF85D
:10036000AC000021184A0223CDE90032CDE9021089
:100370000523012215A111A802F05EFCBDF8AC1006
:1003800011A802F0F1FCBDF8AC000021124A0223D2
:10039000CDE90032CDE9021001231A460FA104A8CD
:1003A00002F04AFCBDF8AC1004A802F0DDFC2BA959
:1003B0000D4801F07BFE2CB010BD000091730008C9
:1003C0004D7954696D657200E97300084D7954697F
:1003D0006D65723200000000497400084D7954695F
:1003E0006D657233000000005C07002010B500F05E
:1003F00093FD00F0B9FD10BD00B585B0684605F06D
:10040000A7FD019805B000BD10B500F0F5FF00F0A4
:1004100019F80121402005F06BFD00F099FE00F075
:100420006DFB00F06BFE06F059FC06F053FD06F084
:1004300071FEFFF7DBFF8F2142F20F7006F0ECF840
:1004400010BD000070B5FFF7D7FF044603480068F1
:10045000B4FBF0F5284602F001FD70BD30790008CC
:1004600010B54948007820B1012811D002280ED1DA
:100470004AE0002045490870454908704549087020
:10048000454908700120454908704549087079E0E0
:100490000CE000204249087001204049087000200B
:1004A0003C4908703A49087000F072FE3C480078F8
:1004B0000028EED13B4802783B4801783B48008851
:1004C00000F0B4FF3A490978884207DA00202E4943
:1004D0000870304908700120364908702D480078AE
:1004E00060B12A48007800280DDD002026490870F8
:1004F0002849087001202F49087004E00020234992
:1005000008702C4908703DE00AE00020234908707B
:1005100001202349087000201F4908701C490870F9
:100520001E4800780028F0D11E4802781E48017845
:100530001E48008800F07AFF1D490978884209DAD0
:1005400000201149087014490870022019490870E8
:1005500000F02AFE1048007870B10C48007800289E
:100560000FDD0020084908700B490870022011496E
:10057000087000F019FE04E00020044908700D49DD
:10058000087000BF00BF10BD5400002021000020F3
:100590004C0000204A0000204B0000204E000020AC
:1005A0004D000020480000204900002046000020A7
:1005B000230000204F00002000BFFEE710B500F030
:1005C000FBF800F003F800F0F3F810BD70B500265A
:1005D00000201849088018490880184908601849FF
:1005E0000860184908601849086018490860002424
:1005F00000BFFFF7BDFD064600BF00250BE0002051
:100600001049086000F074F800F08CF80D4800689C
:100610000444681C85B2002DF1D00C480460002011
:10062000084908600849086000BF3046FFF7A4FD8C
:1006300000BF70BD40070020420700204407002093
:100640004807002050070020540700204C070020D6
:1006500001460846044A1268904203D9024A1268C9
:10066000801A00E0002070474C07002070B500257C
:1006700000BFFFF77DFD054600BF0648046800BFC8
:100680002846FFF779FD00BF2046FFF7E1FF064649
:10069000304670BD5007002070B50025FFF7E6FF1B
:1006A000044600BFFFF764FD054600BF0020044973
:1006B000086000BF2846FFF75FFD00BF204670BD01
:1006C0005007002070B5002500BFFFF751FD05461B
:1006D00000BF0648046800BF2846FFF74DFD00BF75
:1006E0002046FFF7B5FF0646304670BD5407002090
:1006F00010B509480088401C074908800748008851
:1007000018B900F083F80649086004480088401CC6
:100710000249088010BD0000400700204207002069
:100720004407002010B50F480088401E0D4908807E
:1007300008460088A0B900F069F80B49086008462F
:1007400000680A490968441A09480068A04201D2B1
:100750000748046007480068A04201D205480460C9
:1007600010BD000042070020480700204407002079
:10077000500700205407002010B5002400BF00BF20
:10078000FFF7F6FC044600BFFFF7B2FF00BF1021E1
:10079000064800F0C9FE00BFFFF7C4FF00BF2046B7
:1007A000FFF7EAFC00BF00BF10BD0000783E00204C
:1007B00010B5FFF7E1FF10BD10B500200249086039
:1007C00000F00AF810BD00003C0700200149086055
:1007D000704700003C07002010B50A48006840F050
:1007E0008070084908600020074948600846006892
:1007F00040F001000860FFF7FFFD04462046FFF7C8
:10080000E5FF10BDFCED00E0001000E0014840688D
:1008100070470000001000E010B5202000F0E4F860
:10082000012807D1202000F01BF800228021024877
:1008300006F0B7FC10BD00000048004010B54FF4B2
:10084000005000F0D1F8012807D1400300F008F86B
:1008500000228021014806F0A4FC10BD00380140B0
:1008600000F0805111B10349086001E0024948607D
:1008700070470000040402400000024021B10268F9
:1008800042F00102026004E002684FF6FE731A4073
:100890000260704701684FF6FE721140016000214E
:1008A000016041608160C1604B49884208D14A497A
:1008B0000839496841F00F01474A083A51608AE017
:1008C00045491431884208D143490839496841F003
:1008D000F001414A083A51607DE03F4928318842A1
:1008E00008D13D490839496841F470613A4A083AEB
:1008F000516070E038493C31884208D136490839A6
:10090000496841F47041344A083A516063E0324921
:100910005031884208D130490839496841F4702182
:100920002D4A083A516056E02B496431884208D17B
:1009300029490839496841F47001274A083A516049
:1009400049E025497831884208D123490839496866
:1009500041F07061204A083A51603CE01F498842EA
:1009600006D1011F096841F00F01021F116032E03A
:100970001A491431884208D11849091F096841F001
:10098000F001164A121F116025E0144928318842EF
:1009900008D11249091F096841F470610F4A121FFA
:1009A000116018E00D493C31884208D10B49091FFC
:1009B000096841F47041094A121F11600BE00749B0
:1009C0005031884207D10549091F096841F4702157
:1009D000024A121F116070470800024008040240DA
:1009E0000146486880B2704701460020002201F0AD
:1009F000805313B1054B1A6801E0054B1A6802EAEF
:100A000001030BB1012000E0002070470004024008
:100A1000000002401AB103680B43036002E0036860
:100A20008B430360704710B50022026847F6F073ED
:100A30009A430C6A8B6823430C6923434C69234314
:100A40008C692343CC6923434C6A23438C6A234338
:100A50001A430260CB6843600B6883604B68C360D5
:100A600010BD4160704770470346062106221248B8
:100A7000018812480288ABB1012B1BD13AB94EF65E
:100A8000EE60814201D1002070470120FCE739B9B6
:100A90004EF6EE60824201D10120F5E70020F3E737
:100AA000AB20F1E709B90020EEE70AB90120EBE736
:100AB000AB20E9E70020E7E7000001080004010897
:100AC00010B504240B4800F0D9FA0446042C01D0D8
:100AD000204610BD0021074800F01AFB0446042CF4
:100AE00001D02046F5E7044800F0C8FA0446204645
:100AF000EFE7000000000108000401082DE9F047BD
:100B00004FF0060A062600250027A8464FF0FF39B9
:100B10007448B0F800A0744806885FEA0A0075D0EF
:100B2000A0F56E40EE3858B3A0F588501138002873
:100B30006DD146B96B4800F0A1FA0446042C1ED0D2
:100B40002046BDE8F0874EF6EE60864210D165483B
:100B500000F094FA0446042C01D02046F1E700216D
:100B6000614800F0D5FA0446042C08D02046E8E796
:100B7000FFF7A6FF0446042C01D02046E1E7AEE0D3
:100B80007EBB002522E05748C088584931F815102F
:100B9000884201D10FFA85F94D4515D0534931F8F6
:100BA0001500534900F01EF98046B8F1010F0BD033
:100BB0004E4931F815004E49098800F043F90746BF
:100BC000042F01D03846BCE7681C85B2052DDADB5E
:100BD0000021444800F09CFA0446042C02D0204630
:100BE000AFE707E0404800F049FA0446042C1FD064
:100BF0002046A6E74FF6FF70864212D13A4800F031
:100C00003DFA0446042C03D020469AE711E05EE04A
:100C10000021344800F07CFA0446042C08D0204619
:100C20008FE7FFF74DFF0446042C01D0204688E7EC
:100C300055E036B9FFF744FF0446042C46D0204661
:100C40007FE74FF6FF70864207D1274800F016FA7B
:100C50000446042C3AD0204673E7002523E02248BE
:100C6000801D0088214931F81510884201D10FFA02
:100C700085F94D4515D01D4931F815001C4900F086
:100C8000B1F88046B8F1010F0BD0184931F81500C2
:100C90001749098800F0D6F80746042F01D03846D6
:100CA0004FE7681C85B2052DD9DB00210E4800F006
:100CB0002FFA0446042C01D0204642E7094800F0F0
:100CC000DDF90446042C01D020463AE707E0FFF79F
:100CD000F7FE0446042C01D0204632E700BF00BFD7
:100CE00004202EE70000010800040108280000206D
:100CF000260000202DE9F84F074689460425DFF835
:100D0000D4A0354800904FF00008002400264FF092
:100D1000000B0020FFF7A8FE8046B8F1010F05D1B7
:100D2000DFF8B4A02B48401C00900CE0B8F1000F95
:100D300006D1DFF8A0A00AF1010A2748009002E0DE
:100D4000AB20BDE8F88F4EF6EE61504600F0E0F9BA
:100D50000546042D01D02846F3E74946384600F001
:100D600071F80646042E01D03046EAE700241CE064
:100D70001A4830F81400B84215D0184931F8140058
:100D8000174900F02FF88346BBF1010F0BD0134930
:100D900031F814001249098800F054F80646042E70
:100DA00001D03046CDE7601C84B2052CE0DB009812
:100DB00000F064F90546042D01D02846C1E7002162
:100DC000504600F0A5F90546042D01D02846B8E7A5
:100DD0002846B6E7FF0301080000010828000020AC
:100DE000260000202DE9F04706460F46002445F274
:100DF00055584FF00109124DAA460020FFF734FE66
:100E00000446AB2C01D1BDE8F0870D4800EB842AE5
:100E1000601C0B49891E01EB80250AE0B5F80080B3
:100E2000B04505D135F8020C38804FF0000904E0D8
:100E30002D1F0AF102008542F0D800BF4846E2E7C4
:100E4000000001082DE9F0470646884604270025E2
:100E5000154CDFF858900120FFF706FE0546AB2D34
:100E600001D1BDE8F087104800EB8524681C0E49CD
:100E7000891E01EB802913E02068401C78B94146A7
:100E8000204600F045F90746042F01D03846E8E730
:100E90003146A01C00F03CF907463846E1E7241D26
:100EA0004C45E9D38020DCE700000108FF0701087A
:100EB00070B505460E46002431462846FFF7C2FFAE
:100EC0000446802C04D131462846FFF713FF044620
:100ED000204670BD10B54FF4805000F071F840B15D
:100EE00004480078401C034908704FF4805000F01B
:100EF00061F810BD2100002010B5102000F060F84E
:100F000038B104480078401C02490870102000F0F5
:100F100051F810BD220000200EB50121112005F06E
:100F200007F800F03CFB4FF48050ADF80800482073
:100F30008DF80B0002A90B4800F062F90C21022089
:100F400000F03EF94FF48050009000208DF804002E
:100F50000C208DF8050001208DF80600684600F091
:100F600043F80EBD001001400EB50121092004F028
:100F7000DFFF00F029FB1020ADF8080048208DF8B5
:100F80000B0002A90A4800F03BF90421012000F0FF
:100F900017F91020009000208DF804000C208DF827
:100FA000050001208DF80600684600F01DF80EBD12
:100FB000000C014001490860704700001404014022
:100FC000014600200022074B1B6803EA0102054B83
:100FD00014331B680B4013B10AB1012000E000205C
:100FE0007047000000040140002123498279002A53
:100FF0003AD00A46126803689A430B461A600A1DE3
:10100000126803689A430B1D1A60027911440A683A
:1010100003681A430A60184A0832126803689A4340
:10102000154B08331A601A1D126803689A43124B55
:101030000C331A604279102A0ED11A1F1268036805
:101040001A430D4B08331A601A1D126803681A43BD
:10105000094B0C331A600DE00749427911440A68C4
:1010600003681A430A6005E0027911440A680368BC
:101070009A430A60704700000004014030B50446FE
:1010800004254FF4302000F06FF80546042D17D1E9
:101090000C48006940F002000A49086108464461B2
:1010A000006940F0400008614FF4302000F05CF827
:1010B00005460448006941F6FD7108400149086190
:1010C000284630BD0020024004200B49C96801F0C9
:1010D000010109B101200EE00749C96801F00401CE
:1010E00009B1022007E00449C96801F0100109B103
:1010F000032000E0042070470020024003480069FC
:1011000040F0800001490861704700000020024063
:1011100070B504460D460426F00200F025F8064698
:10112000042E11D10948006940F001000749086107
:101130002580F00200F018F806460448006941F6E0
:10114000FE71084001490861304670BD0020024030
:1011500002480349486003484860704723016745D7
:1011600000200240AB89EFCD00B502460423FFF713
:10117000ABFF034603E0FFF7A7FF0346521E012B18
:1011800001D1002AF7D102B90523184600BD00009D
:1011900010B5034802880221024805F067F910BD26
:1011A000400000200004004010B5034802880221DE
:1011B000024805F05BF910BD420000200004004029
:1011C00030B500228B071C0F0F2303FA04F20B4BE0
:1011D0008C1053F824309343084C8D1044F825307C
:1011E00023468C1053F824308C07240F00FA04F4A3
:1011F0002343024C8D1044F8253030BD08000140D7
:101200002DE9F0410246002500260020002300249D
:10121000002791F803C00CF00F0591F803C00CF003
:10122000100CBCF1000F03D091F802C04CEA050588
:1012300091F800C0BCF1000F31D0146800202BE001
:101240004FF0010C0CFA00F3B1F800C00CEA0306F1
:101250009E4220D183004FF00F0C0CFA03F7BC43E1
:1012600005FA03FC4CEA040491F803C0BCF1280F12
:1012700006D14FF0010C0CFA00FCC2F814C00AE0D1
:1012800091F803C0BCF1480F05D14FF0010C0CFAE6
:1012900000FCC2F810C0401C0828D1D31460B1F87B
:1012A00000C0BCF1FF0F34DD546800202EE000F1D7
:1012B000080C4FF0010808FA0CF3B1F800C00CEA72
:1012C00003069E4221D183004FF00F0C0CFA03F766
:1012D000BC4305FA03FC4CEA040491F803C0BCF1DA
:1012E000280F05D100F1080C08FA0CF8C2F8148098
:1012F00091F803C0BCF1480F07D100F1080C4FF082
:10130000010808FA0CF8C2F81080401C0828CED357
:101310005460BDE8F0810000F0B50A4600230024C7
:101320000021002500F00046B6F1004F02D11D4E0D
:10133000F16901E01B4E7168C0F3034583B200F40C
:101340004016B6F5401F08D121F07061154E766841
:1013500026F07066134F7E6012E000F48016B6F53A
:10136000801F06D1032606FA05F4A14341F07061FF
:1013700006E0460D360103FA06F6B14341F070610E
:1013800022B1460D360103FA06F6314300F000465D
:10139000B6F1004F02D1034EF16101E0014E7160E0
:1013A000F0BD0000000001400161704701468A1D48
:1013B0001078704702A005F0CBFF00BFFEE70000E9
:1013C0000D0A206861726466616C757420657272C2
:1013D0000D0A0000AA2101700D214170817821F0D1
:1013E0000101491C8170817821F0FE01817000218A
:1013F000C17081807047000008B50121082004F009
:1014000097FD0120ADF8000010208DF803000320A7
:101410008DF8020069460448FFF7F2FE01210248F8
:10142000FFF7C2FF08BD0000000C014010B50346E5
:101430000C460448007893FBF0F090FBF2F080B289
:10144000014610BD4900002000B58BB00AA8032159
:1014500000220592CDE9062108901046502108226D
:101460001E4BCDE90132CDE90310032000231C4AB5
:101470001CA100901F4800F0C3FC0AA80321002211
:101480000592CDE9062108901046502108221A4BFA
:10149000CDE90132CDE9031004200023174A18A139
:1014A0000090194800F0ACFC0AA803210022059224
:1014B000CDE906210890104650210822134BCDE9B2
:1014C0000132CDE9031006200023114A11A100903A
:1014D000134800F095FC0BB000BD0000841F0020F5
:1014E000D16A000855534152545F4465636F646587
:1014F00000000000EC1B0020C4200020796A0008D6
:1015000053616D706C650000B41C00200422002043
:10151000416A0008444A495F426174746572790007
:101520007C1D002000BFFEE730B505460C46224674
:101530000021284600F001F830BD2DE9F0410346B6
:101540000C4617460FB9BDE8F08103B9FBE700254B
:10155000002202E02D022543521C042AFAD3384609
:1015600003F0030C1946BCF1000F08D0624603E0FB
:1015700001F8014B401E521C08B1042AF8D30E4654
:1015800001E020C6001F0428FBD2314602E001F82A
:10159000014B401E0028FAD100BFD4E7704708B5C0
:1015A0004FF4E06000F06EF828208DF80000002075
:1015B0008DF8010005208DF8020001208DF8030050
:1015C000684600F027F808BD08B54FF4E06000F069
:1015D00059F80A208DF8000000208DF80100052040
:1015E0008DF8020001208DF80300684600F012F823
:1015F00008BD08B51D208DF8000000208DF8010001
:1016000003208DF8020001208DF80300684600F0E9
:1016100001F808BD70B5002100230F22C47804B37F
:10162000154C246804F4E064C4F5E064210AC1F1B7
:101630000403CA40447804FA03F184781440214337
:1016400009010E4C0678A155047804F01F05012409
:10165000AC4005786D11AD0005F1E025C5F80041FD
:1016600009E0047804F01F050124AC40044D06781D
:10167000761145F8264070BD0CED00E000E400E076
:1016800080E100E002490143024A11607047000016
:101690000000FA050CED00E07047000010B50348AB
:1016A000006810B101480068804710BD780600202E
:1016B00070B5044600F0C2F8002048490870484957
:1016C0000870484908704849086048490860484916
:1016D00008704849087048490870484908604849F6
:1016E00008604849086048490870484800680A216D
:1016F000B0FBF1F0464908604648006858B14648DA
:10170000056845B14348066803E0761E002028605E
:101710002D1D002EF9D10020404908604049086085
:1017200040490860404908604049086040490860F5
:10173000404908604049087002F022FB02F020FC9A
:10174000204601F07DFC208800B170BD204602F0EB
:1017500097F8208800B1F8E7204602F09DF820882D
:1017600000B1F2E7204602F081F9208800B1ECE7F1
:10177000204602F035FB208800B1E6E7204602F063
:1017800085FD208800B1E0E7204603F0EFF82088CF
:1017900000B1DAE7204601F0DFFF208800B1D4E78E
:1017A000204601F0E9FD208800B1CEE7204604F094
:1017B00045F9208800B1C8E7204603F01BF82088CF
:1017C00000B1C2E7204604F0A9F9208800B1BCE7C7
:1017D00001F05CFBFFF760FF00BFB6E78C0600205E
:1017E00094060020DC060020340700203807002083
:1017F000C2060020C3060020C4060020D006002038
:10180000D4060020D8060020E40600203079000825
:10181000E006002000790008FC7800086C06002033
:101820007006002074060020780600207C06002048
:101830008006002084060020120700200A4A116852
:10184000002002E0002204C1401C084A12689042B5
:10185000F8D3054A1268054B1B6802EB8302121F7E
:10186000034B1A6070470000FC78000800790008FC
:101870006406002010B500242E480078012800D00E
:1018800010BD00BFFEF774FC044600BF2A48007874
:1018900028B900BF2046FEF76FFC00BFF0E72648DE
:1018A0000078401E2449087008460078002805DDAD
:1018B00000BF2046FEF760FC00BFE1E71F4800784C
:1018C000002805DD00BF2046FEF756FC00BFD7E725
:1018D00002F042FA1A4908700846007800EB40000E
:1018E000184951F82000184908600846006817494F
:1018F0000968884205D100BF2046FEF73DFC00BFC5
:10190000BEE711480068D0F89000401C0E490968F5
:10191000C1F890000E480068401C0D4908604FF067
:1019200080500C49086000BF2046FEF725FC00BF30
:1019300000BFA5E7940600208C060020DC060020EE
:10194000C3060020A03A00203807002034070020FA
:101950000807002004ED00E010B5002420480078BE
:10196000002800DD10BD1F480078002800DDF9E7E1
:1019700000BFFEF7FDFB044600BF02F0EDF91A4977
:1019800008700846007800EB4000184951F8200024
:10199000174908600846006816490968884205D159
:1019A00000BF2046FEF7E8FB00BFDBE710480068F9
:1019B000D0F89000401C0E490968C1F890000E480C
:1019C0000068401C0C4908604FF080500B490860CB
:1019D00000BF2046FEF7D0FB00BF00BFC2E70000FB
:1019E0008C060020DC060020C3060020A03A002060
:1019F00038070020340700200807002004ED00E02D
:101A000070B5044600251A480078002803DD46F624
:101A10006250208070BD17480078012803D045F639
:101A200089602080F6E714480078FA2803DB45F245
:101A300009202080EEE700BF00BFFEF799FB0546B6
:101A400000BFFEF755FE00BF0B480078401C0A4956
:101A5000087002F079FB00BFFEF764FE00BF284665
:101A6000FEF78AFB00BF00BF0020208000BFD1E747
:101A70008C06002094060020DC06002070B5044689
:101A8000002523480078002803DD46F665502080B5
:101A900070BD20480078012803D045F68960208079
:101AA000F6E71D48007818B946F664502080EFE745
:101AB00000BF00BFFEF75CFB054600BFFEF718FE47
:101AC00000BF15480078401E13490870084600788A
:101AD00000280CDD00BFFEF725FE00BF2846FEF7FC
:101AE0004BFB00BF00BF46F663502080D0E702F0FA
:101AF00039FB00BFFEF716FE00BF2846FEF73CFB91
:101B000000BF00BFFFF728FF0020208000BFBFE715
:101B10008C06002094060020DC06002010B5044648
:101B200012480078E8B902F017F911490870084620
:101B30000078104908700E48007800EB40000E490C
:101B400051F820000D490860084600680C490860FB
:101B5000012006490870FEF799FB43F69920208082
:101B600002E045F68A60208010BD00009406002047
:101B7000C3060020C2060020A03A0020380700203B
:101B8000340700202DE9F04107464FF0000800BF60
:101B900000BFFEF7EDFA804600BFFEF7A9FD00BFCB
:101BA000002047490860474908804749088047495D
:101BB0000860474908604749086047490860474945
:101BC00008604749088100BFFEF7ACFD00BF4046F2
:101BD000FEF7D2FA00BF00BF00BF00BFFEF7C8FA91
:101BE000804600BFFEF784FD00BF3E48046800BF8A
:101BF000FEF798FD00BF4046FEF7BEFA00BF00BFEB
:101C000026E000BF00BFFEF7B3FA804600BFFEF734
:101C10006FFD00BF00207834E06320642060206303
:101C2000A061A082E0826062A062FEF7EFFD206208
:101C3000783C04F164060020B081D4F8C04000BFB5
:101C4000FEF770FD00BF4046FEF796FA00BF00BFEA
:101C5000002CD6D100BF00BFFEF78AFA804600BF35
:101C6000FEF746FD00BF2048056800BFFEF75AFD9D
:101C700000BF4046FEF780FA00BF00BF16E000BF7D
:101C800000BFFEF775FA804600BFFEF731FD00BFCA
:101C900005F120060020B081AD6900BFFEF742FDCE
:101CA00000BF4046FEF768FA00BF00BF002DE6D136
:101CB00003F08CFD04F02EF800203880BDE8F081A0
:101CC000A8060020A2060020F2060020040700203B
:101CD000180700202407002090060020D4060020CA
:101CE000943A00200C070020C8060020F8B50446EE
:101CF00000266946364800F033FDBDF8000018B1F3
:101D0000BDF800002080F8BD6A460021022000F0E6
:101D1000A9FDBDF8000018B1BDF800002080F2E771
:101D200000BF00BFFEF724FA064600BFFEF7E0FC46
:101D300000BF00202749086000BFFEF7F3FC00BF8A
:101D40003046FEF719FA00BF00BF002522480068A0
:101D500022490968884205D91F4800681F49096857
:101D6000B0FBF1F525B91C4800680A21B0FBF1F57C
:101D70006A460021284600F075FD6946144800F0C7
:101D8000A5FABDF8000018B1BDF800002080BAE740
:101D900000BF00BFFEF7ECF9064600BFFEF7A8FC47
:101DA00000BF00200E4908600A4800680D4908601D
:101DB00001200D49087000BFFEF7B4FC00BF30469B
:101DC000FEF7DAF900BF00BF0020208000BF9AE7CD
:101DD000B03D0020F4060020307900081879000892
:101DE00004070020F80600200007002010B5034873
:101DF000006810B101480068804710BD7C060020D3
:101E00002DE9FF4F87B004469046DDE91BA5DDE9CB
:101E10001496179F0020039095480078002805DD50
:101E200047F24A1028800BB0BDE8F08F1CB947F28A
:101E3000AD102880F7E7B8F1000F03D147F24F103B
:101E40002880F0E71EB946F62F602880EBE7894826
:101E50000068874203D246F630602880E3E7169890
:101E6000B84203D346F631602880DCE7B9F1200F91
:101E700003D346F273202880D5E7B9F1000F06D1CD
:101E80007D48844203D046F273202880CBE7B9F125
:101E90001F0F06D17948844203D046F27320288070
:101EA000C1E7204602F072FD002028800AF0010000
:101EB00090B10AF0020078B105960020069008E083
:101EC0000021059801600598001D05900698401CAA
:101ED00006900698B842F3D3169806EB800004905B
:101EE000CDE9007A32464046049B0A9900F0D8FBBF
:101EF0000590C4F828800A98E0620898206284F867
:101F00003790059820600498A0601998606519982A
:101F100018B95B480068A06501E01998A0651A9897
:101F200060606662A763A4F83CA04FF0000B08E075
:101F3000002104F17C0040F82B100BF1010000F0AF
:101F4000FF0BBBF1000FF3D004F16400189901F00E
:101F500003FD204600F09EF800BF00BF00BFFEF763
:101F600007F9039000BFFEF7C3FB00BF45480078A8
:101F7000401C4449087008460078012801D102F04D
:101F8000E3F800BFFEF7CEFB00BF0398FEF7F4F8BE
:101F900000BF00BF00BF94F8370001F0FDFE2046EF
:101FA00002F036F8204602F0A7FC37480088401CB3
:101FB0003549088035480078012837D000BF00BF78
:101FC00000BFFEF7D5F8039000BFFEF791FB00BFFE
:101FD0002C480078401E2B49087008460078D0B97C
:101FE00002F0C0F82A48008800280BDD00BFFEF789
:101FF00099FB00BF0398FEF7BFF800BF00BF02F0D7
:1020000075F811E000BFFEF78DFB00BF0398FEF7E7
:10201000B3F800BF08E000BFFEF784FB00BF0398E1
:10202000FEF7AAF800BF00BF00BFFCE600BF00BF7C
:1020300000BFFEF79DF8039000BFFEF759FB00BFFD
:1020400010480078401E0F4908700846007808B90B
:1020500002F088F800BFFEF765FB00BF0398FEF7AB
:102060008BF800BF00BF00BFFFF776FC00BFDAE6C9
:102070008C0600202C790008CC390020043900207F
:10208000E0060020DC060020100700209406002057
:10209000A006002010B504460348006818B1204689
:1020A00001490968884710BD6C06002070B50446D8
:1020B0000D46002678480078002803DD47F24E10D0
:1020C000288070BD7548844203D147F24C102880A7
:1020D000F7E77348844203D147F24D102880F0E7B8
:1020E0009CB900BF00BFFEF743F8064600BFFEF7ED
:1020F000FFFA00BF6B48046800BFFEF713FB00BF88
:102100003046FEF739F800BF00BF00BF00BF00BF78
:10211000FEF72EF8064600BFFEF7EAFA00BF624857
:102120000078401C6049087008460078012801D1F9
:1021300002F00AF800BFFEF7F5FA00BF3046FEF7DE
:102140001BF800BF00BF00BF94F8360008282DD24E
:10215000DFE800F004090E10080A0F11204601F014
:1021600097FF5EE05DE000BF204603F013FB58E000
:1021700000BF00BF00BF204603F00CFB94F8340002
:10218000082810D2DFE800F004070508090A0B064A
:1021900000BF00BF08E000BF00BF00BF00BF204677
:1021A00001F02BFD00E000BF00BF3AE000BF00BF20
:1021B00000BFFDF7DDFF064600BFFEF799FA00BF3E
:1021C00039480078401E3849087008460078D0B970
:1021D00001F0C8FF3548008800280BDD00BFFEF77E
:1021E000A1FA00BF3046FDF7C7FF00BF00BF01F0F6
:1021F0007DFF11E000BFFEF795FA00BF3046FDF706
:10220000BBFF00BF08E000BFFEF78CFA00BF3046FE
:10221000FDF7B2FF00BF00BF00BF46F62D6028806B
:102220004FE700BF04F1640001F074FB204600F0AA
:1022300041F8204602F078FB1D480088401E1C49EA
:102240000880204602F0A2FBFF2084F8360000BF81
:1022500000BF00BFFDF78CFF064600BFFEF748FA3F
:1022600000BF11480078401E0F49087008460078EA
:1022700008B901F077FF00BFFEF754FA00BF3046FF
:10228000FDF77AFF00BF00BF00BF00202880FFF7E6
:1022900063FB00BF15E700008C0600200439002016
:1022A000CC39002034070020DC060020A0060020E6
:1022B0001007002010B504460348006818B12046F6
:1022C00001490968884710BD700600207FB50446A3
:1022D0000D46002600BF00BFFDF74AFF064600BFBF
:1022E000FEF706FA00BF1CB11748006884420CD103
:1022F00000BFFEF717FA00BF3046FDF73DFF00BFF5
:1023000000BF47F2571028807FBD00BFFEF70AFAD2
:1023100000BF3046FDF730FF00BF00BF0B4800781C
:1023200000280BDD00200090019003460246214664
:10233000CDE90205064801F057F8E5E729462046B1
:1023400002F0D0FC00BFDFE7340700208C0600203D
:102350005452455310B504460348006818B120464E
:1023600001490968884710BD740600202DE9F0472F
:1023700080460E4614461D464FF000098C480078F2
:10238000002805DD46F2AE1028800020BDE8F08769
:102390001EB1B6F5004F02D100E000BF04E045F6E3
:1023A000256028800020F1E700BF0CB100202060EC
:1023B00000BF00BFFDF7DCFE814600BFFEF798F9C5
:1023C00000BF7C480068406CB8B37A480068406C35
:1023D000401E78490968486476480068476C1CB11B
:1023E00074480068006C2060FEF710FA71490968B3
:1023F000096C401A6F490968C1F8A4006D4800686B
:10240000D0F8A8006B490968D1F8A410884207D217
:1024100068480068D0F8A40066490968C1F8A800B7
:1024200000BFFEF77FF900BF4846FDF7A5FE00BFDD
:1024300000BF002028803846A8E7FFE706F40040E8
:1024400068B100BFFEF76EF900BF4846FDF794FE85
:1024500000BF00BF46F2B0102880002096E7564823
:10246000007800280DDD00BFFEF75CF900BF48468C
:10247000FDF782FE00BF00BF46F6635028800020B3
:1024800084E700BF4C480078401C4B490870084660
:102490000078012801D101F057FE00BFFEF742F994
:1024A00000BF4846FDF768FE00BF00BF00BF4346BF
:1024B00007220021084601F0E5FA00BF00BF00BF77
:1024C000FDF756FE814600BFFEF712F900BF3A48FD
:1024D0000078401E384908700846007808B901F0B5
:1024E00041FE00BFFEF71EF900BF4846FDF744FE5F
:1024F00000BF00BF00BFFFF72FFA00BF00BFFDF70E
:1025000037FE814600BFFEF7F3F800BF2948006898
:1025100090F8350020B1012826D0032834D12CE0D2
:10252000FCB124480068006C2060FEF76FF9214977
:102530000968096C401A1F490968C1F8A4001D48C0
:102540000068D0F8A8001B490968D1F8A410884297
:1025500007D218480068D0F8A40016490968C1F8E5
:10256000A8000020288013E01CB112480068006C0D
:10257000206046F2A91028800AE00CB100202060FB
:1025800047F2D920288003E046F62E60288000BF5D
:1025900000BF08480068476C00BFFEF7C3F800BFE3
:1025A0004846FDF7E9FD00BF00BF3846EEE60000F3
:1025B0008C06002034070020DC0600202DE9F047BF
:1025C00005460E4617461C464FF0000A3248007872
:1025D000002804DD47F259102080BDE8F0871EB9BD
:1025E00046F2D5202080F8E71FB946F2D52020809A
:1025F000F3E700BF00BFFDF7BBFD824600BFFEF75B
:1026000077F800BF0DB925480568286878B900BF7C
:10261000FEF788F800BF5046FDF7AEFD00BF00BFD3
:1026200000203060386047F252102080D5E795F8DE
:102630003C0000F0010078B900BFFEF773F800BF5E
:102640005046FDF799FD00BF00BF002030603860A4
:1026500047F254102080C0E700BFFEF763F800BFC8
:102660005046FDF789FD00BF00BF4FF00008D5F8C8
:10267000249003E009F1040908F10108D9F80000E9
:102680000028F7D0C6F80080A86BA0EB08003860DF
:102690000020208000BFA0E78C0600203407002027
:1026A000F0B50446DDE9055602EB85004FF0807C6D
:1026B000071F3846C7F800C0071F38463C60DFF8E0
:1026C0009CC0071F3846C7F800C04FF0123C071FD8
:1026D0003846C7F800C04FF0033C071F3846C7F81C
:1026E00000C04FF0023C071F3846C7F800C0071F64
:1026F00038463B60071F384639604FF0113C071FD2
:102700003846C7F800C04FF0103C071F3846C7F8DE
:1027100000C04FF0093C071F3846C7F800C04FF013
:10272000083C071F3846C7F800C04FF0073C071F9A
:102730003846C7F800C04FF0063C071F3846C7F8B8
:1027400000C04FF0053C071F3846C7F800C04FF0E7
:10275000043C071F3846C7F800C0F0BD614E0008B2
:102760007FB505460C461248854203D147F25B10FF
:1027700020807FBD0F48854203D147F25C10208046
:10278000F7E70D48007800280BDD0020009001904D
:10279000034602462946CDE90204084800F024FE1B
:1027A000E7E72146284602F03BFE00BFE1E70000D4
:1027B00004390020CC3900208C0600205453555396
:1027C00070B52448006810B1224800688047FEF7C1
:1027D0001DF804462048006820490968884215D041
:1027E0001D480068D0F89800201A1B490968C1F8F4
:1027F000940019480068D0F89C0017490968D1F87E
:102800009410084414490968C1F89C0013480068F2
:10281000C0F89840FDF740FF05460F480068D0F823
:10282000B400A84203D20C480068C0F8B4500A486B
:102830000068D0F8B8000A490968884205D20848FB
:10284000006805490968C1F8B8000020044908601B
:1028500070BD0000800600203407002038070020EB
:10286000D80600202DE9F04105460E461446002703
:102870004D480078002804DD47F275202080BDE82F
:10288000F0814A480078002803DD46F66350208036
:10289000F5E736B1022E05D0042E0AD0082E09D154
:1028A00001E000BF00BF1DB947F27E202080E6E7AF
:1028B00004E003E045F625602080E0E700BF00BFAC
:1028C00000BF00BFFDF754FC074600BFFDF710FF37
:1028D00000BF36480078401C34490870084600782C
:1028E000012801D101F030FC00BFFDF71BFF00BF44
:1028F0003846FDF741FC00BF00BF00BF01202C4956
:10290000096881F83600234632462946284800687F
:1029100002F062FE2088F0B100BF00BF00BFFDF7EB
:1029200027FC074600BFFDF7E3FE00BF1F48007805
:10293000401E1E4908700846007808B901F012FCD4
:1029400000BFFDF7EFFE00BF3846FDF715FC00BFE6
:1029500000BF00BF93E71648006801F099FB00BF75
:1029600000BF00BFFDF704FC074600BFFDF7C0FE37
:1029700000BF0E480078401E0C49087008460078D9
:1029800008B901F0EFFB00BFFDF7CCFE00BF3846F1
:10299000FDF7F2FB00BF00BF00BFFEF7DDFF002028
:1029A000208000BF6BE700008C060020DC060020C2
:1029B000340700202DE9FF5F05460E46174698466E
:1029C000DDE90EA40020009081480078002804DD95
:1029D00047F275202080BDE8FF9F7E4800780028E0
:1029E00003DD46F663502080F5E70AF00E0BBBF1DD
:1029F000000F09D0BBF1020F07D0BBF1040F10D0BC
:102A0000BBF1080F0ED101E000BF00BFB8F1000F0D
:102A100006D12FB926B91DB947F27E202080DAE70A
:102A200004E003E045F625602080D4E700BF2AF0EB
:102A30001E0008B1012000E0002003900398012847
:102A400003D145F625602080C5E7CAF30010029047
:102A50000298C0B9B8F57A7F03D347F27B20208073
:102A6000B9E73B2F03DD47F27A202080B3E73B2E06
:102A700003DD47F279202080ADE7632D12DD47F2B8
:102A800078202080A7E742F20F70864203DD47F2EC
:102A9000792020809FE7B5F57A7F03DB47F2782025
:102AA000208098E74C48D0F800904FF4FA70B0FBC3
:102AB000F9F0404400FB09F04FF47A71B0FBF1F1FA
:102AC0004FF461606843C6EB061200EB82003844A5
:102AD00000FB091001900198002873D000BF00BFCF
:102AE00000BFFDF745FB009000BFFDF701FE00BFF2
:102AF00038480078401C374908700846007801289B
:102B000001D101F021FB00BFFDF70CFE00BF0098D2
:102B1000FDF732FB00BF00BF00BF01202F4909684D
:102B200081F8360023465A462C480199006802F085
:102B300053FD2088F0B100BF00BF00BFFDF718FBB8
:102B4000009000BFFDF7D4FD00BF22480078401E72
:102B5000204908700846007808B901F003FB00BF5F
:102B6000FDF7E0FD00BF0098FDF706FB00BF00BFCA
:102B700000BF30E71948006801F08AFA00BF00BFC3
:102B800000BFFDF7F5FA009000BFFDF7B1FD00BFF3
:102B900010480078401E0F4908700846007808B9B0
:102BA00001F0E0FA00BFFDF7BDFD00BF0098FDF7A2
:102BB000E3FA00BF00BF00BFFEF7CEFE002020807A
:102BC00003E0FFE747F27E20208000BF03E700001C
:102BD0008C060020DC060020307900083407002035
:102BE00010B586B000F01EF8FDF710FE044605A8EB
:102BF00000210091CDE9011403900748007800EB13
:102C00004000064A02EB800100231A46044800F007
:102C1000EBFB06B010BD0000C2060020A03A002069
:102C20005449434B10B50348006810B1014800688F
:102C3000804710BD840600202DE9F84F04468846E1
:102C400016461F46DDE90BABDDF828900D9D0020F0
:102C5000009041480078002804DD47F24330288086
:102C6000BDE8F88F1CB945F6C3502880F8E7B9F1E4
:102C7000010F08D0B9F1020F0BD11FB947F2403054
:102C80002880EDE709E01EB947F23F302880E7E7EA
:102C900003E045F625602880E2E700BF00BF00BFE3
:102CA00000BFFDF765FA009000BFFDF721FD00BFF2
:102CB0002A480078401C29490870084600780128F5
:102CC00001D101F041FA00BFFDF72CFD00BF0098D3
:102CD000FDF752FA00BF00BF00BF012084F82A00B0
:102CE0001F482060C4F8048026620020A061E061D3
:102CF0006762A4F82890C4F808A0C4F80CB020615A
:102D00006061204602F0F6FE16480088401C154916
:102D1000088000BF00BF00BFFDF72AFA009000BF87
:102D2000FDF7E6FC00BF0D480078401E0B49087017
:102D30000846007808B901F015FA00BFFDF7F2FC6B
:102D400000BF0098FDF718FA00BF00BF00BF0020C9
:102D5000288000BF84E700008C060020DC060020ED
:102D6000544D522020070020F8B506460C4629484D
:102D70000078002804DD47F2433020800020F8BDB1
:102D800026B947F2423020800020F8E72249306817
:102D9000884204D045F6C45020800020EFE7684602
:102DA000FEF72EFE96F82A0000B3012812D0022862
:102DB00002D0032822D10EE0304603F01DF8002196
:102DC000304602F03FFF6846FEF758FE00202080A4
:102DD00001251BE000BF0021304602F033FF6846AA
:102DE000FEF74CFE0020208001250FE06846FEF72C
:102DF00045FE47F23D302080002507E06846FEF79B
:102E00003DFE47F241302080002500BF00BF28462C
:102E1000B5E700008C060020544D522010B5002468
:102E200000BF00BFFDF7A4F9044600BFFDF760FC3A
:102E300000BF09480078401C0749087000BFFDF733
:102E400071FC00BF2046FDF797F900BF00BFFFF7F8
:102E5000C7FEFEF70FFD10BD8C06002001464A1E7E
:102E60004FF0E0235A61084A106820F07F4000BF0D
:102E700010601A46126942F005021A611A46126978
:102E800042F002021A61704720ED00E0254A26490F
:102E9000264A274A2749284A2848294A294A2A4AA5
:102EA0002A4A2B482B482C482C4A2D482D4A2E487C
:102EB0002E4A2F482F4830483048314A314A324A4A
:102EC0003248334A334A344834483548354836481E
:102ED00036483748374A384A384A394A39483A48EA
:102EE0003A483B4A3B4A3C4A3C483D483D483E49BB
:102EF0003E483F4A3F4A404A404A414A414A424A84
:102F00004248434A434A44484448454A454A464859
:102F1000464A474A47484848484800BF00BF00BFA4
:102F20007047000074790008DC7A000875790008A1
:102F300076790008787900087C79000880790008A3
:102F40007D790008A8790008A9790008AA79000805
:102F5000AC790008AE790008B0790008B2790008B1
:102F6000B4790008D4790008D6790008D879000827
:102F7000DA790008DC790008DE790008E0790008D9
:102F80000C7A00080D7A00080E7A0008107A000802
:102F9000127A0008137A0008147A0008167A0008DA
:102FA000187A00081A7A00081C7A00081E7A0008AD
:102FB000207A0008507A0008517A0008527A0008F6
:102FC000537A0008547A0008567A0008587A0008A4
:102FD000807A0008817A0008827A0008837A0008E3
:102FE000847A0008867A0008887A00088C7A0008BB
:102FF0008D7A00088E7A00088F7A0008907A00088F
:10300000917A0008927A0008937A0008947A00086E
:10301000967A0008977A0008987A00089A7A000849
:103020009C7A00089D7A0008A07A0008D47A0008EB
:10303000D57A0008D67A0008D87A0008DA7A00082B
:103040000021034A1160034A11800180704700008B
:10305000AC060020B00600202DE9F04F85B00446F4
:10306000894692469B46DDF838800020009000BFDC
:1030700000BFFDF77DF8009000BFFDF739FB00BFF2
:10308000BAF1000F0AD0BAF1010F0DD0BAF5004F16
:1030900005D06FF40040504460B906E000BF206ADC
:1030A00040EA0900206216E000BF206A20EA090019
:1030B000206210E000BFFDF735FB00BF0098FDF770
:1030C0005BF800BF00BF45F62560A8F800000020AF
:1030D00005B0BDE8F08F00BFC4F824B004F10800CB
:1030E00001900198008968B900BFFDF71BFB00BF84
:1030F0000098FDF741F800BF00BF0020A8F80000CD
:10310000206AE5E700BF71480078401C6F490870ED
:1031100008460078012801D101F016F800BFFDF73C
:1031200001FB00BF0098FDF727F800BF00BF00BFFC
:1031300001980768BD6889E07868029095F8880072
:1031400000F00F0003900398012821D002282ED010
:10315000042802D0082836D10EE0206AD5F8801065
:1031600000EA0106D5F88000B04204D15A46314643
:10317000284600F0AFF863E0206AD5F8801000EA36
:10318000010626B15A463146284600F0A3F857E01A
:10319000D5F88000216A20EA0106D5F88000B04207
:1031A00004D15A463146284600F094F848E0D5F854
:1031B0008000216A20EA010626B15A463146284697
:1031C00000F088F83CE000BF00BF00BFFCF7D0FF74
:1031D000009000BFFDF78CFA00BF3C480078401E0D
:1031E0003A49087008460078D0B900F0BBFF38486B
:1031F000008800280BDD00BFFDF794FA00BF00989F
:10320000FCF7BAFF00BF00BF00F070FF11E000BF85
:10321000FDF788FA00BF0098FCF7AEFF00BF08E09A
:1032200000BFFDF77FFA00BF0098FCF7A5FF00BFC5
:1032300000BF00BF43F6FF20A8F80000002047E7CA
:1032400000BF029F0FB1BD6800E00025002D7FF494
:1032500073AF00BF00BF00BFFCF78AFF009000BF44
:10326000FDF746FA00BF19480078401E174908705C
:103270000846007808B900F075FF00BFFDF752FA64
:1032800000BF0098FCF778FF00BF00BF00BF0AF442
:10329000004008B9FEF760FB00BF00BFFCF768FF05
:1032A000009000BFFDF724FA00BF206A049000BF21
:1032B000FDF738FA00BF0098FCF75EFF00BF00BFC3
:1032C0000020A8F80000049802E70000DC060020B7
:1032D000A006002070B504460E4615463434266517
:1032E000002060702070E560A078343C082816D279
:1032F000DFE800F0040508090706101100BF00BF51
:1033000000BF0DE000BF204601F0DEFC002084F885
:10331000360005E000BF042084F8360000E000BF5E
:1033200000BF204600F069FC70BD0000002400BF13
:103330001DE000BF00BFFCF71BFF044600BFFDF708
:10334000D7F900BF0A480068401C094908600948CD
:103350000068401C0749086000BFFDF7E3F900BFA3
:103360002046FCF709FF00BF00BFFEF797F9E0E732
:1033700088060020F406002010B58AB0044600201C
:103380000E4908600B2000210591CDE90704069144
:1033900008460B4909680B4A12680B4B1B68CDE9BC
:1033A0000132CDE903101F200023084A08A1009034
:1033B0000C48FEF725FD0AB010BD0000880600206D
:1033C000D8780008D4780008D07800082D33000899
:1033D00075432F4F532D4949492049646C6520544A
:1033E00061736B00043900202DE9F84F04460D4647
:1033F00016461F46DDE90BABDDF82890DDF834807A
:103400000020009000BF00BFFCF7B2FE009000BF9C
:10341000FDF76EF900BF2C4800882C4909888842C6
:103420003EDA29480088401C27490880284800883F
:103430000988884203DA24480088254908802548FD
:103440000068046023480068856022480068C66000
:103450002048006807821F480068C0F814901D4883
:103460000068A0F818A01B480068C0F81CB01948F4
:10347000006840681749086001201749088117480B
:1034800008604860002000F087FC1548007818B1FB
:1034900013480078134908700020A8F8000008E0DD
:1034A00011480088401C1049088044F25360A8F875
:1034B000000000BFFDF736F900BF0098FCF75CFE86
:1034C00000BF00BFBDE8F88FA0060020E478000828
:1034D000A206002098060020A03A0020CC39002047
:1034E000C2060020C4060020A40600203EB55948AC
:1034F00000680068584A811A904279D00FDC574919
:10350000084400283ED056490844A8B1554908440B
:10351000002860D05449084400286AD13FE053484D
:103520000844002850D052490844002862D051492C
:1035300008440028F1D110E002A8464D00902D6803
:10354000EB69444D2D682A8B424D2D686969414DC8
:103550002D68A868FFF780FD7AE002A93D48006861
:10356000C0693C4DCDE900012D682B8B394D2D688C
:103570002A8A384D2D68E968364D2D68A86800F014
:103580003BFC65E0334B1B68DA69324B1B68198BD7
:10359000304B1B68986802AB00F084FE58E002A92B
:1035A0002C480068C0692B4DCDE900012D682B8B9C
:1035B000284D2D682A8A274D2D68E968254D2D68EC
:1035C000A86801F04BFA43E022490968886802A91B
:1035D00001F088FB3CE01F4B1B68DA691D4B1B6840
:1035E000198B1C4B1B68986802AB01F045FC2FE05F
:1035F00007E02CE017490968886802A901F010FF6C
:1036000026E01D49097801EB41011C4A02EB8100CB
:1036100000F0C6FD0F48006802AB0021C2691848DF
:1036200001F02AFC17480068401E16490860084649
:10363000006858B9144800680860FDF7E7F80446C8
:1036400002AB22460021114801F016FC00E000BF49
:1036500000BF3EBD9C0600205449434BADBAB2BEEC
:103660000DF90BFAF2F8F7FF0006F6FF00F7FDF789
:1036700000FFEFFF03FE0FFEC4060020A03A00206B
:10368000E83C0020300700202C070020B03D00203F
:10369000002700BF56E0002652E000BF00BFFCF745
:1036A00067FD074600BFFDF723F800BF26480088E6
:1036B00098B90020254908810860486000F07EFB29
:1036C00000BFFDF72FF800BF3846FCF755FD00BFDF
:1036D00000BFFEF741F9012632E000BFFDF722F8F6
:1036E00000BF3846FCF748FD00BF00BFFDF78EF86D
:1036F0000546FFF7FBFEFDF789F8441B14480068F8
:10370000A04201D21248046000BF00BFFCF730FDA8
:10371000074600BFFCF7ECFF00BF0E48006840689A
:103720000C49086008480088401E0749088000BF0F
:10373000FCF7F8FF00BF3846FCF71EFD00BF00BFD6
:10374000002EAAD0A7E70000A0060020A03A002083
:10375000A80600209C060020F0B589B00546002090
:10376000314908803148006820B944F2526028800D
:1037700009B0F0BD2E480088022803DA44F25460F4
:103780002880F5E700202B49086028480468264671
:10379000203600270CE0284820600020A060E06070
:1037A000208260612083666020342036781C87B2D6
:1037B0001F4800888742EEDB203C1C480668666094
:1037C0001E4806601E48066000201E4908801E49EB
:1037D00008801E48006818B944F255602880C7E781
:1037E0001B4800681B490968884203D244F25660AE
:1037F0002880BDE7032000210591CDE9070506914A
:1038000013480068144A1268104B1B68CDE9030185
:10381000CDE9013200910B46104A11A11748FEF77D
:10382000EFFA00BFA4E70000A4060020E07800083B
:10383000E4780008A80600204E4F4E459806002068
:103840009C060020A0060020A2060020EC780008BC
:10385000F47800082C790008F07800089136000808
:1038600075432F4F532D49494920495352205175D3
:10387000657565205461736B00000000CC39002031
:103880000021034A1160034A118001807047000043
:10389000B4060020B806002070B501461A4D2D6808
:1038A0001DB945F21E750D8070BD184D2D881DB9CE
:1038B00045F21D750D80F7E7134D28682A68103210
:1038C000124D2D886D1EACB2002308E00260002569
:1038D00045600581C560103010325D1CABB2A3425B
:1038E000F4DB0025056045600581C560064D2D6847
:1038F000074E3560054D2D88B5800025F580358152
:103900000D8000BFD0E7000010790008087900089A
:10391000943A002010B5014648894B89002B17DDE9
:103920000A680C4B1B6813600A4C4B6823602346E3
:10393000DB884C891B1B074CE38023469B884C8902
:103940002344044CA38000234B818B810B604B608C
:1039500010BD0000943A0020018100224281828142
:1039600002604260704700002DE9F0410D46DDE93C
:103970000674B0F80AC0B0F80880C44505DB46F20A
:10398000935CA4F800C0BDE8F081DFF8DCC0BCF8AF
:1039900004C0BCF1000F04D145F21D7CA4F800C0A6
:1039A000F1E7DFF8C4C0DCF80010DFF8BC80D1F824
:1039B00000C0C8F800C0C446BCF804C0ACF1010C9B
:1039C000A8F804C0C446BCF806C00CF1010CA8F865
:1039D00006C0C446BCF808C0B8F80680C44507DA7B
:1039E000DFF884C0BCF806C0DFF87C80A8F808C007
:1039F000B0F80AC0BCF1000F0AD1016041604FF07D
:103A0000010CA0F80AC04FF0000CC1F800C017E08C
:103A100003F0100CBCF1000F07D1066831600160A3
:103A20004FF0000CC1F800C004E0D0F804C0C1F8A9
:103A300000C04160B0F80AC00CF1010CA0F80AC047
:103A4000B0F80CC0B0F80A80C44503DAB0F80AC078
:103A5000A0F80CC04D600A81CF604FF0000CA4F8B4
:103A600000C000BF8FE70000943A00200021034A05
:103A70001160034A1180018070470000BC060020DD
:103A8000C00600202DE9F04105460C4616461F46AB
:103A90001548006880F8346000201349096881F8EF
:103AA000350039461048006800F00AFF6CB104F197
:103AB0000808EC60012229460B48006800F016F85F
:103AC0002946404600F066F806E0002006490968ED
:103AD000C88705490968086303480168204600F063
:103AE00019F8BDE8F08100003407002010B5C28746
:103AF000016300230AE000244C600C600C614C61FF
:103B00000C83CC61886020315C1CA3B29342F2DB51
:103B100010BD000030B548B14568C1F8C45000F18F
:103B20000804226893681D6AC56113E091F8345057
:103B3000022D02D0072D08D103E007A5C1F8C4501B
:103B400007E007A5C1F8C45003E008A5C1F8C450B8
:103B500000BF00BF30BD00005461736B20510000F6
:103B60005461736B2053656D00000000200000005D
:103B700030B507A5C1F8C45000F1080422681AB195
:103B800093681D6AC56101E001A5C56130BD0000F3
:103B900020000000F0B58E6896F8375007893FB9CD
:103BA0000127078100274F600F600160416023E01B
:103BB00007897F1C0781026806E0946894F83770D3
:103BC000AF4200DD02E05268002AF6D100BF32B9F0
:103BD00000274F6043680B60596041600CE0176834
:103BE0002FB9116000270F604A60016004E013687C
:103BF0000B604A6059601160F0BD2DE9F041044648
:103C0000256BE68F0AE0D5F80C8008F108072946F5
:103C1000384600F00AF82035701E86B2002EF2DC1D
:103C20000020E0872063BDE8F08110B50489012CF5
:103C300003D100240460446011E00C6824B94A6890
:103C40000024146002600AE04C6824B90B68002468
:103C50005C60436003E00B684A685A601360048943
:103C6000641E048100244C600C6010BD2DE9F843F3
:103C700006460C4617469846089D94F836000828D4
:103C800050D2DFE800F00405080906072B2C00BF1E
:103C900000BF00BF47E000BF94F83400032807D1FD
:103CA00043463A4621463046009500F03FF803E08F
:103CB000E765A4F86080256436B12046FFF79DFFD4
:103CC00021463046FFF754FF204600F0FDFF00205C
:103CD0003434A070607004F8340924E000BF94F814
:103CE0003400032807D143463A4621463046009522
:103CF00000F01CF803E0E765A4F860802564204626
:103D000001F048FD36B12046FFF777FF21463046E7
:103D1000FFF72EFF04203434A0700020607004F8F8
:103D2000340900E000BF00BFBDE8F883F0B50446E9
:103D3000059E086BCD8F0AE0C768A74204D10461D5
:103D400042610383C66104E020306F1EBDB2002DC6
:103D5000F2DC00BFF0BD000070B50025074C03E0A9
:103D600005F12000C5B2241D20680028F8D0206885
:103D7000FCF709FA2844C5B2284670BD6806002041
:103D8000002004E00021034A42F82010401C0028D3
:103D9000F8D070476806002030B5420900F01F03D4
:103DA0000121C3F11F04A140034C54F822400C43ED
:103DB000014D45F8224030BD6806002030B542096B
:103DC00000F01F030121C3F11F04A140034C54F86C
:103DD00022408C43014D45F8224030BD680600204A
:103DE0000021034A1160034A1180018070470000DE
:103DF000C8060020CC0600202DE9F04F85B007460C
:103E00008A4693461C460020029000BF00BF00BFB8
:103E1000FCF7AEF9029000BFFCF76AFC00BF564801
:103E20000078401C5449087008460078012801D1E8
:103E300000F08AF900BFFCF775FC00BF0298FCF7A0
:103E40009BF900BF00BF00BF07F1080630890028BA
:103E50004CD104F0100010B94FF0000801E04FF011
:103E60001008DDE90E0143465A46CDE900015146EE
:103E700007F12000FFF778FD00BF00BF00BFFCF78F
:103E800077F9029000BFFCF733FC00BF3A48007896
:103E9000401E3949087008460078D0B900F062F930
:103EA0003648008800280BDD00BFFCF73BFC00BF54
:103EB0000298FCF761F900BF00BF00F017F911E0AC
:103EC00000BFFCF72FFC00BF0298FCF755F900BFBC
:103ED00008E000BFFCF726FC00BF0298FCF74CF995
:103EE00000BF00BF00BF05B0BDE8F08F04F4007054
:103EF00008B1358900E00125D6F8009011E0D9F825
:103F000008000390D9F8040004900E985B465246CE
:103F1000009038460399FFF7A9FEDDF81090681E5F
:103F200085B2002DEBD100BF00BF00BFFCF720F928
:103F3000029000BFFCF7DCFB00BF0F480078401E7A
:103F40000D4908700846007808B900F00BF900BF69
:103F5000FCF7E8FB00BF0298FCF70EF900BF00BFBA
:103F600000BF04F4004008B9FDF7F6FC00210F98EB
:103F7000018000BFB7E70000DC060020A00600209B
:103F800000210AE001EB4102054B03EB8200002215
:103F90000281026042604A1CD1B22029F2D37047EC
:103FA000A03A002010B5044694F83700FFF7F4FE5D
:103FB00094F8370005490978884203D1204600F07B
:103FC00027F802E0204600F003F810BDC2060020EA
:103FD00010B590F8373003EB43030C4C04EB83012E
:103FE0000B893BB901230B810023C3600361086087
:103FF000486009E00B895B1C0B810B68C3600023E0
:1040000003610A681061086010BD0000A03A00203A
:1040100010B590F8373003EB43030B4C04EB8301EE
:104020000B893BB901230B810023C3600361086046
:10403000486008E00B895B1C0B810023C3604A6861
:104040000261D060486010BDA03A002010B5014662
:104050000C8924B1012C03D0022C0CD101E000BF4B
:1040600014E008684A6802610024C4601461D060EA
:104070000A6048600AE008684A68C36800241C6156
:10408000C4600261D0600B60486000BF00BF10BD1B
:104090002DE9F041054695F8370000EB4000124944
:1040A00001EB80042F69EE6887B946B900202081B2
:1040B0002060606095F83700FFF780FE0EE02089F1
:1040C000401E208100203061266007E02089401ECC
:1040D0002081FE600EB9676000E037610020286132
:1040E000E860BDE8F0810000A03A002010B500248F
:1040F00000BFFCF73DF8044600BF00200D490870E2
:104100000D480E49086008460068D0F89000401C31
:104110000968C1F890000A480068401C0849086016
:104120004FF080500749086000BF2046FCF724F894
:1041300000BF10BDC3060020CC3900203807002086
:104140000807002004ED00E010B5044800780128BD
:1041500003D1FCF75BFB0249086010BDDC060020C0
:10416000D006002010B50A48007880B9FCF74EFB55
:1041700008490968441A08480068A04201D2064864
:10418000046006480068A04201D20448046010BDE3
:10419000DC060020D0060020D4060020D80600202F
:1041A00070B50546002635480078012800D070BD5E
:1041B00000BF00BFFBF7DCFF064600BFFCF798FA24
:1041C00000BF2C684CB900BFFCF7ACFA00BF30460A
:1041D000FBF7D2FF00BF00BFE9E72948844209D1BD
:1041E00000BFFCF79FFA00BF3046FBF7C5FF00BFDA
:1041F00000BFDCE7A06D10B1A06D401EA065A06DF2
:1042000048B100BFFCF78EFA00BF3046FBF7B4FFA1
:1042100000BF00BFCBE72889022809DA00BFFCF7FE
:1042200081FA00BF3046FBF7A7FF00BF00BFBEE723
:1042300014480078002809DD00BFFCF773FA00BFBE
:104240003046FBF799FF00BF00BFB0E72846FFF7F5
:10425000FDFE2C68606D18B90B480068A06501E090
:10426000606DA06500BFFCF75DFA00BF3046FBF74C
:1042700083FF00BF00BF00BF99E70000E4060020F5
:1042800004390020DC060020E00600200021034A5B
:104290001160034A1180018070470000E806002089
:1042A000EC0600202DE9FF5F0446884691461D4636
:1042B0000020019000BF00BFFBF75AFF019000BF34
:1042C000FCF716FA00BF04F108073889002857D117
:1042D0000420012804D0022816D004283AD127E06F
:1042E000206AFF280FD100BFFCF71CFA00BF01981D
:1042F000FBF742FF00BF00BF46F6C55028800020F4
:1043000004B0BDE8F09F26E04FF6FF71206A8842B6
:104310000DD100BFFCF706FA00BF0198FBF72CFF98
:1043200000BF00BF46F6C55028800020E8E712E035
:10433000206A401C68B900BFFCF7F4F900BF01987F
:10434000FBF71AFF00BF00BF46F6C55028800020CB
:10435000D6E700E000BF00BF206A401C2062D4F80E
:1043600020A0C4F8249000BFFCF7DCF900BF01983E
:10437000FBF702FF00BF00BF002028805046BFE7C8
:1043800000BF2D480078401C2B4908700846007873
:10439000012801D1FFF7D8FE00BFFCF7C3F900BF29
:1043A0000198FBF7E9FE00BF00BF00BF08F40070F2
:1043B00008B13E8900E00126D7F800B011E0DBF833
:1043C00008000290DBF80400039000231A46CDF8A1
:1043D000009020460299FFF749FCDDF80CB0701EF2
:1043E00086B2002EEBD1D4F820A000BF00BF00BFE2
:1043F000FBF7BEFE019000BFFCF77AF900BF0E4844
:104400000078401E0C4908700846007808B9FFF78C
:10441000A9FE00BFFCF786F900BF0198FBF7ACFED0
:1044200000BF00BF00BF08F4004008B9FDF794FAD0
:1044300000202880504663E7DC06002086B000207C
:10444000009000BF06E0D9490968480001AA002190
:10445000FEF708FAD64800780128F4D101A8FDF744
:1044600091FB0027D3480068D0490968884205D9E4
:10447000D0480068CD490968B0FBF1F727B9CD48AD
:1044800000680A21B0FBF1F78EE1FCF7BFF9824624
:10449000FCF718F9C849086000BF00BFFBF768FEC9
:1044A000009000BFFCF724F900BFC4480068C4496D
:1044B00008600020C149086000BFFCF733F900BF65
:1044C0000098FBF759FE00BF00BFBE480068BC491A
:1044D0000968884248D9BB480068BB49884205D270
:1044E00042F2107003900120029023E0B54800686A
:1044F000B649884205D24FF47A7003900A200290A0
:1045000018E0B0480068B249884203D264200390A2
:1045100002900FE0AB480068AE49884205D20A20FD
:1045200003904FF47A70029004E00120039042F26D
:1045300010700290A34801680298B1FBF0F9A049FD
:10454000039809684843B0FBF9F042F21071081A69
:10455000A1490880A14800880988884208DA9E4855
:1045600000889E49088003E042F210709A49088052
:10457000FDF73CFC002500BF00BFFBF7F9FD0090F4
:1045800000BFFCF7B5F800BF9548046800BFFCF712
:10459000C9F800BF0098FBF7EFFD00BF00BF72E055
:1045A00000BF00BF00BFFBF7E3FD009000BFFCF7BA
:1045B0009FF800BF8B480078401C8A490870084665
:1045C0000078012801D1FFF7BFFD00BFFCF7AAF872
:1045D00000BF0098FBF7D0FD00BF00BF00BF54F83C
:1045E0009C0F6060002044F89C0900BF00BF00BF22
:1045F000FBF7BEFD009000BFFCF77AF800BF7948DA
:104600000078401E7749087008460078D0B9FFF757
:10461000A9FD7548008800280BDD00BFFCF782F873
:1046200000BF0098FBF7A8FD00BF00BFFFF75EFDCD
:1046300011E000BFFCF776F800BF0098FBF79CFD87
:1046400000BF08E000BFFCF76DF800BF0098FBF763
:1046500093FD00BF00BF00BFD4F8A000054400BF19
:1046600000BFFBF785FD009000BFFCF741F800BFDD
:10467000D4F8C04000BFFCF755F800BF0098FBF726
:104680007BFD00BF00BF002C8AD145B34E48854258
:1046900005D242F2107005904FF0010B1BE04B4821
:1046A000854205D24FF47A7005904FF00A0B12E064
:1046B0004748854203D26420059083460BE0454875
:1046C000854204D20A2005904FF47A7B03E0012052
:1046D000059042F2107BB5FBFBF0049003E0002054
:1046E00005900120049000BF00BFFBF741FD009042
:1046F00000BFFBF7FDFF00BF3948046800BFFCF7AF
:1047000011F800BF0098FBF737FD00BF00BF2FE096
:10471000D4F8A000059948430499B0FBF1F086B2A3
:1047200042F21070864200D90646A4F88C60B4F8B4
:104730008E00B04201DAA4F88E6001AB04F1AC0245
:10474000111D2046FDF73AFF00BF00BFFBF710FD2B
:10475000009000BFFBF7CCFF00BFD4F8C04000BF03
:10476000FBF7E0FF00BF0098FBF706FD00BF00BFAE
:10477000002CCDD11D480078012805D100201B490F
:10478000087001A8FDF7FEF9FCF740F8A0EB0A0855
:1047900017480068404502D21548C0F8008001AAB9
:1047A00000213846FEF75EF86FE600001879000831
:1047B000000700203079000890060020F406002051
:1047C000FC060020F8060020801A060000093D00C3
:1047D000005A62020084D717F0060020F20600207B
:1047E0000C070020DC060020A0060020EE060020BA
:1047F0000407002010B58AB0044600201F49086055
:104800001F4908601F4908601F4908701F49087048
:104810001F48006820B946F62B6020800AB010BD02
:104820001C4800681C490968884203D246F62C607F
:104830002080F3E7194800781F2803D346F62A6042
:104840002080EBE7032000210591CDE907040691C4
:10485000084610490968124A12680D4B1B68CDE9D9
:104860000132CDE903100D48007800230D4A0EA156
:1048700000901248FDF7C4FA00BFCFE7F40600200D
:10488000FC060020F806002000070020EE060020AD
:104890001C790008247900082C7900081479000894
:1048A000207900083D44000875432F4F532D494996
:1048B000492053746174205461736B00203C0020C4
:1048C00038B504460D4685B16B460222294620467E
:1048D00000F082FEBDF8000018B9032084F836000D
:1048E00006E0022084F8360002E0022084F8360058
:1048F0002046FFF7CDFB38BD0021C0F8BC100949A8
:10490000096819B90021C0F8C01007E00549096815
:10491000C0F8C01003490968C1F8BC00014908602B
:10492000704700000C070020D0F8BC20D0F8C01061
:104930004AB90D4B196011B10023C1F8BC300023F6
:10494000C0F8C0300FE029B90023C2F8C030C0F869
:10495000BC3008E0C2F8C010C1F8BC200023C0F889
:10496000C030C0F8BC3070470C0700200021044A5A
:104970001160044A1180044A1160018070470000F0
:104980000C070020100700200807002070B504461F
:1049900000202060A0606060E06020616061A06134
:1049A000E0612BA0206200206062A062E0622063D0
:1049B000E0872064E065A4F86000002104F1640051
:1049C000FEF7CAFF002044F8740F6060E060A08228
:1049D0002061743C002506E0002104F17C0040F8D1
:1049E0002510681CC5B2002DF6D00020343420619B
:1049F00020676067606084F85600E067A0672081E8
:104A00004FF0004060610020A061E06120626062C0
:104A1000A4F85800A4F85A00E0652066FBF7F6FEFB
:104A2000064666660020A066C4F88000C4F88400CC
:104A300020706070A0702020E0700020C4F8880012
:104A4000C4F88C0004A0C4F89000343C70BD000091
:104A50003F5461736B000000200000002DE9FC470B
:104A600004460F4690469946DDE90A654FF0000A74
:104A700000BF00BF00BFFBF77BFB824600BFFBF718
:104A800037FE00BF8D480078401C8C4908700846EE
:104A90000078012801D1FFF757FB00BFFBF742FE6A
:104AA00000BF5046FBF768FB00BF00BF00BF0CB95A
:104AB000834804680020288094F8360008287CD2B7
:104AC000DFE800F00405484906074A4B00BF00BF75
:104AD00000BF4B464246394604F16400CDE900650B
:104AE000FEF742FF00BF00BF00BFFBF741FB82465D
:104AF00000BFFBF7FDFD00BF70480078401E6F4906
:104B0000087008460078D0B9FFF72CFB6D48008884
:104B100000280BDD00BFFBF705FE00BF5046FBF78A
:104B20002BFB00BF00BFFFF7E1FA11E000BFFBF76E
:104B3000F9FD00BF5046FBF71FFB00BF08E000BFB8
:104B4000FBF7F0FD00BF5046FBF716FB00BF00BFB0
:104B500000BFAFE000BF00BF00BF94F834000228E0
:104B60002CD143463A46214600200096FFF77EF8B6
:104B700000BF00BF00BFFBF7FBFA824600BFFBF798
:104B8000B7FD00BF4D480078401E4C4908700846EC
:104B9000007808B9FFF7E6FA00BFFBF7C3FD00BFD6
:104BA0005046FBF7E9FA00BF00BF00BF09F4004020
:104BB000002843D1FCF7D0FE40E040E04B4642469F
:104BC000394604F16400CDE90065FEF7CDFE00BF73
:104BD00000BF00BFFBF7CCFA824600BFFBF788FDA1
:104BE00000BF36480078401E3449087008460078F7
:104BF000D0B9FFF7B7FA3348008800280BDD00BFB3
:104C0000FBF790FD00BF5046FBF7B6FA00BF00BFB0
:104C1000FFF76CFA11E000BFFBF784FD00BF5046C0
:104C2000FBF7AAFA00BF08E000BFFBF77BFD00BF5F
:104C30005046FBF7A1FA00BF00BF00BF3AE000BF3B
:104C400000BF00BFFBF794FA824600BFFBF750FDA0
:104C500000BF1A480078401E1849087008460078BE
:104C6000D0B9FFF77FFA1748008800280BDD00BF96
:104C7000FBF758FD00BF5046FBF77EFA00BF00BFB0
:104C8000FFF734FA11E000BFFBF74CFD00BF5046C0
:104C9000FBF772FA00BF08E000BFFBF743FD00BF5F
:104CA0005046FBF769FA00BF00BF00BF46F62D6013
:104CB000288000BF00BFBDE8FC870000DC060020A4
:104CC00034070020A006002010B50446204600F05E
:104CD00061FD94F8360000F0040010B92046FFF79B
:104CE00061F910BD70B504460D46002600BF00BF37
:104CF000FBF73EFA064600BFFBF7FAFC00BF0020B8
:104D0000288094F8360008287ED2DFE800F00405F9
:104D1000060714566A8000BF00BF00BF00BFFBF744
:104D200001FD00BF3046FBF727FA00BF00BF47F286
:104D3000531028808CE000BF48480078401C474949
:104D4000087008460078012801D1FFF7FDF900BF7F
:104D5000FBF7E8FC00BF3046FBF70EFA00BF00BFD0
:104D600000BF14F88A0F401E207014F88A0928B971
:104D7000002084F836002046FFF7A6FF00BF00BFE2
:104D800000BFFBF7F5F9064600BFFBF7B1FC00BF1B
:104D900032480078401E314908700846007808B94A
:104DA000FFF7E0F900BFFBF7BDFC00BF3046FBF7A3
:104DB000E3F900BF00BF00BF4AE014F88A0F401EAD
:104DC000207014F88A0910B9012084F8360000BF59
:104DD000FBF7A8FC00BF3046FBF7CEF900BF00BFD1
:104DE00036E014F88A0F401E207014F88A0910B9B2
:104DF000022084F8360000BFFBF794FC00BF304669
:104E0000FBF7BAF900BF00E015E000BF20E014F89E
:104E10008A0F401E207014F88A0910B9032084F804
:104E2000360000BFFBF77EFC00BF3046FBF7A4F95D
:104E300000BF00BF0CE000BFFBF774FC00BF3046B2
:104E4000FBF79AF900BF00BF46F62D60288070BDC1
:104E500000BFFCF781FD00BFF9E70000DC06002081
:104E600008B504480068FDF775FA69460020FDF7AB
:104E70001DF908BD340700202DE9F8430446884693
:104E800017461D464FF0000900BF00BF00BFFBF7EB
:104E90006FF9814600BFFBF72BFC00BFFB48007891
:104EA000401CFA49087008460078012801D1FFF734
:104EB0004BF900BFFBF736FC00BF4846FBF75CF937
:104EC00000BF00BF00BF0CB9F14804682764002090
:104ED000288094F8360008287AD2DFE800F004052C
:104EE000FEFD0607FCFB00BF00BF00BF0420012839
:104EF00004D0022843D004286BD184E0606CFF28E2
:104F00003CD100BF00BF00BFFBF732F9814600BFB4
:104F1000FBF7EEFB00BFDD480078401EDB49087060
:104F200008460078D0B9FFF71DF9DA480088002854
:104F30000BDD00BFFBF7F6FB00BF4846FBF71CF993
:104F400000BF00BFFFF7D2F811E000BFFBF7EAFB9C
:104F500000BF4846FBF710F900BF08E000BFFBF7B1
:104F6000E1FB00BF4846FBF707F900BF00BF00BFE9
:104F700046F6C55028800020BDE8F88385E04FF64E
:104F8000FF71606C88423DD100BF00BF00BFFBF7DE
:104F9000EFF8814600BFFBF7ABFB00BFBB480078D2
:104FA000401EBA49087008460078E0B9FFF7DAF801
:104FB000B848008800280DDD00BFFBF7B3FB00BF39
:104FC0004846FBF7D9F800BF00BFFFF78FF813E0A2
:104FD000E2E159E000BFFBF7A5FB00BF4846FBF745
:104FE000CBF800BF08E000BFFBF79CFB00BF4846C2
:104FF000FBF7C2F800BF00BF00BF46F6C5502880CF
:105000000020B9E741E0606C401CD8BB00BF00BF86
:1050100000BFFBF7ADF8814600BFFBF769FB00BF9F
:105020009A480078401E9949087008460078D0B91F
:10503000FFF798F89748008800280BDD00BFFBF7C2
:1050400071FB00BF4846FBF797F800BF00BFFFF7B2
:105050004DF811E000BFFBF765FB00BF4846FBF7CA
:105060008BF800BF08E000BFFBF75CFB00BF4846C1
:10507000FBF782F800BF00BF00BF46F6C55028808E
:10508000002079E7FFE700E000BF00BF606C401C34
:105090006064666C00BF00BF00BFFBF769F8814623
:1050A00000BFFBF725FB00BF78480078401E77491A
:1050B000087008460078F8B9FFF754F8754800887A
:1050C000002810DD00BFFBF72DFB00BF4846FBF7B3
:1050D00053F803E01EE01CE01AE018E000BF00BF38
:1050E000FFF704F811E000BFFBF71CFB00BF4846C8
:1050F000FBF742F800BF08E000BFFBF713FB00BF5F
:105100004846FBF739F800BF00BF00BF80E100BF91
:1051100000BF00BF94F8340007282CD100231A46A2
:10512000214618460097FEF7A1FD666C00BF00BF40
:1051300000BFFBF71DF8814600BFFBF7D9FA00BF9F
:1051400052480078401E514908700846007808B956
:10515000FFF708F800BFFBF7E5FA00BF4846FBF78A
:105160000BF800BF00BF00BF08F40040002801D1C9
:10517000FCF7F2FB0FE10420012804D0022842D002
:10518000042872D189E0606CFF283BD100BF00BFCA
:1051900000BFFAF7EDFF814600BFFBF7A9FA00BF99
:1051A0003A480078401E3949087008460078D0B95E
:1051B000FEF7D8FF3748008800280BDD00BFFBF75B
:1051C000B1FA00BF4846FAF7D7FF00BF00BFFEF7AD
:1051D0008DFF11E000BFFBF7A5FA00BF4846FAF7C4
:1051E000CBFF00BF08E000BFFBF79CFA00BF4846BA
:1051F000FAF7C2FF00BF00BF00BF46F6C5502880C7
:105200000020B9E68BE04FF6FF71606C884243D115
:1052100000BF00BF00BFFAF7ABFF814600BFFBF73E
:1052200067FA00BF19480078401E18490870084600
:105230000078D8B9FEF796FF1648008800280BDDE5
:1052400000BFFBF76FFA00BF4846FAF795FF00BFB3
:1052500000BFFEF74BFF12E000BFFBF763FA00BF91
:105260004846FAF789FF00BF09E057E000BFFBF7A7
:1052700059FA00BF4846FAF77FFF00BF00BF00BFE2
:1052800046F6C5502880002076E60000DC060020A7
:1052900034070020A006002041E0606C401CD8BB11
:1052A00000BF00BF00BFFAF763FF814600BFFBF7F6
:1052B0001FFA00BF58480078401E5749087008463A
:1052C0000078D0B9FEF74EFF5448008800280BDD67
:1052D00000BFFBF727FA00BF4846FAF74DFF00BFB3
:1052E00000BFFEF703FF11E000BFFBF71BFA00BF92
:1052F0004846FAF741FF00BF08E000BFFBF712FA8B
:1053000000BF4846FAF738FF00BF00BF00BF46F6AF
:10531000C550288000202FE6FFE700E000BF00BF57
:10532000606C401C6064666C00BF00BF00BFFAF791
:105330001FFF814600BFFBF7DBF900BF364800784E
:10534000401E3549087008460078D0B9FEF70AFFBC
:105350003248008800280BDD00BFFBF7E3F900BFEF
:105360004846FAF709FF00BF00BFFEF7BFFE11E095
:1053700000BFFBF7D7F900BF4846FAF7FDFE00BFB4
:1053800008E000BFFBF7CEF900BF4846FAF7F4FE8D
:1053900000BF00BF00BF3BE000BF00BF00BFFAF787
:1053A000E7FE814600BFFBF7A3F900BF1A4800786B
:1053B000401E1949087008460078D0B9FEF7D2FEA1
:1053C0001648008800280BDD00BFFBF7ABF900BFD3
:1053D0004846FAF7D1FE00BF00BFFEF787FE11E096
:1053E00000BFFBF79FF900BF4846FAF7C5FE00BFB4
:1053F00008E000BFFBF796F900BF4846FAF7BCFE8D
:1054000000BF00BF00BF46F62D602880002600BF09
:1054100000BF3046B0E50000DC060020A0060020FA
:1054200070B504460D46002600BF00BFFAF7A0FE87
:10543000064600BFFBF75CF900BF0CB95A48046888
:1054400059480068844210D15848007800280CDD83
:1054500000BFFBF767F900BF3046FAF78DFE00BFCB
:1054600000BF46F66350288070BD0020288094F865
:105470003600082873D2DFE800F0044252627374E9
:10548000757600BF49480078401C484908700846B6
:105490000078012801D1FEF757FE00BFFBF742F963
:1054A00000BF3046FAF768FE00BF00BF00BF04200F
:1054B00084F83600012084F88A002046FEF7E8FDD3
:1054C00000BF00BF00BFFAF753FE064600BFFBF760
:1054D0000FF900BF35480078401E3449087008466F
:1054E000007808B9FEF73EFE00BFFBF71BF900BFCE
:1054F0003046FAF741FE00BF00BF00BF4FE0052075
:1055000084F83600012084F88A0000BFFBF70AF90E
:1055100000BF3046FAF730FE00BF00BF3FE0062074
:1055200084F83600012084F88A0000BFFBF7FAF8FF
:1055300000BF3046FAF720FE00BF00BF2FE0072073
:1055400084F83600012084F88A0000BFFBF7EAF8EF
:1055500000BF3046FAF710FE00BF00BF1FE011E0A9
:1055600000BF00BF00BF94F88A00401C84F88A0086
:1055700000BFFBF7D7F800BF3046FAF7FDFD00BFCC
:1055800000BF0CE000BFFBF7CDF800BF3046FAF7D4
:10559000F3FD00BF00BF46F62D60288064E700BF22
:1055A000FCF7DAF900BF5FE734070020DC060020D3
:1055B000002108E0064A02EBC1000022026082805E
:1055C000C2804A1C91B2034A12889142F2DB7047B2
:1055D000F4350020487900082DE9F04F0C461646B6
:1055E0001D46042E1ED1DFF8A091D9F80090A4EB3F
:1055F0000909A9F1010313F5803F0DD94FF0000906
:10560000C0F84C90C0F85090C0F81C9047F27E292A
:10561000A5F80090BDE8F08FC46403F10109C0F85B
:1056200050903FE084B3082E25D1D0F8489009EB84
:105630000407DFF85491D9F80090A7EB0909A9F104
:105640000103A34201D2C76406E0DFF83C91D9F818
:105650000090A144C0F84C90DFF82CA1D0F84C90F9
:10566000DAF800A0A9EB0A09C0F85090D0F84C90E5
:10567000C0F8489016E0DFF81091D9F80090A144E6
:10568000C0F84C9004650DE0FFE74FF00009C0F84A
:105690004C90C0F85090C0F81C9047F27E29A5F8B5
:1056A0000090B7E7DFF8E4A0BAF800A0D0F84C907B
:1056B000B9FBFAFB0AFB1B991FFA89F8DFF8D090B7
:1056C00009EBC802B2F80490B9F1000F0BD14FF00A
:1056D0000009C0F81490C0F8189010604FF001094C
:1056E000A2F804903EE0116834E0DFF89CA0D1F805
:1056F0004C90DAF800A0A9EB0A09C1F85090D0F854
:105700005090D1F850A0D1450ED9D1F81490B9F1EC
:10571000000F01D049691DE04FF00009C0F8149056
:1057200081614861002115E0D1F81890B9F1000FAE
:1057300007D14FF00009C0F81890416188611060EE
:1057400007E0D1F818C0C0F818C04161CCF81400C7
:10575000886100210029C8D1B2F8049009F101093B
:10576000A2F80490B2F80690B2F804A0D14503DA8A
:10577000B2F80490A2F80690C2614FF00009A5F8B3
:10578000009000BF46E70000140700204879000899
:10579000F435002010B5C269BAB10024046514685C
:1057A000844205D14169116039B100248C6104E063
:1057B000816943694B6103B199610024446184614B
:1057C000C461C4649488641E948010BD002006E007
:1057D000054A02EBC0010022CA80421C90B2034A73
:1057E00012889042F4DB7047F435002048790008B5
:1057F0002DE9F05F4FF0000B00BF00BF00BFFAF7CC
:10580000B7FC834600BFFAF773FF00BF7A48007801
:10581000401C7949087008460078012801D1FEF73C
:1058200093FC00BFFAF77EFF00BF5846FAF7A4FCCE
:1058300000BF00BF00BFFAF7E9FF05466F480068E8
:10584000401C6E490860084600686D490988B0FB35
:10585000F1F201FB12001FFA80FA6A4800EBCA0855
:10586000D8F80040002782E0002C7FD0D4F81490B4
:1058700094F83600082875D2DFE800F00408051B0C
:10588000063D075000BF00BF00BF6CE05B49E06C05
:105890000968401A20655949E06C0968884206D1B8
:1058A000002084F836002046FFF70EFA00E00127BA
:1058B00059E05249E06C0968401A20654F49E06C94
:1058C0000968884215D10020E065A4F86000FAF765
:1058D0009DFF20642046FEF790F92046FFF7F4F97B
:1058E00000203434A07003206070002004F83409D4
:1058F00000E0012737E04149E06C0968401A206563
:105900003E49E06C0968884206D1042084F83600DC
:105910002046FFF73FFF00E0012724E03749E06C15
:105920000968401A20653549E06C0968884217D13A
:105930000020E065A4F86000FAF768FF20642046C4
:10594000FEF75BF92046FFF725FF04203434A070F2
:1059500003206070002004F8340902E006E001E052
:10596000012700E000BF00BF4C4600E00127002FE8
:105970003FF47AAFFAF74AFF461B23480068B0426B
:1059800001D22148066000BF00BF00BFFAF7F0FB5C
:10599000834600BFFAF7ACFE00BF17480078401EF0
:1059A0001549087008460078D0B9FEF7DBFB1748A8
:1059B000008800280BDD00BFFAF7B4FE00BF584690
:1059C000FAF7DAFB00BF00BFFEF790FB11E000BF63
:1059D000FAF7A8FE00BF5846FAF7CEFB00BF08E072
:1059E00000BFFAF79FFE00BF5846FAF7C5FB00BF9D
:1059F00000BF00BFBDE8F09FDC06002014070020B8
:105A000048790008F435002018070020A00600207F
:105A10001CB500BF0EE001AB6A4600210846FCF74A
:105A2000A5FCBDF8040028B903480078012801D17D
:105A3000FFF7DEFEEFE700009406002010B58AB005
:105A4000044600201D4908601D490860FFF7B0FDAD
:105A50001C48006820B947F2122020800AB010BD0F
:105A60001948006819490968884203D247F213208F
:105A70002080F3E7164800781F2803D347F211204F
:105A80002080EBE70B20002105910A46CDE90704B1
:105A900006910D4800680F4909680A4B1B68CDE95B
:105AA0000131CDE903020A48007800230A4A0BA11C
:105AB00000900F48FCF7A4F900BFCFE714070020BF
:105AC0001807002038790008407900082C79000870
:105AD000347900083C790008115A000875432F4FAB
